:100000000C94D5000C94FD000C94FD000C94FD00A4
:100010000C94FD000C94FD000C94FD000C94FD006C
:100020000C94FD000C94FD000C94BE050C9431065C
:100030000C9477050C94FD000C94FD000C94FD00CD
:100040000C942D050C94FD000C94FB040C94D50429
:100050000C94FD000C94FD000C94FD000C94FD002C
:100060000C94B7060C94FD0000407A10F35A00A0DF
:10007000724E18090010A5D4E80000E87648170071
:1000800000E40B54020000CA9A3B000000E1F505B1
:10009000000080969800000040420F000000A086FB
:1000A00001000000102700000000E803000000002D
:1000B0006400000000000A000000000001000000D1
:1000C00000002C76D888DC674F0823DFC1DFAE59EB
:1000D000E1B1B796E5E3E453C63AE651997696E87E
:1000E000E6C28426EB898C9B62ED407C6FFCEFBC02
:1000F0009C9F40F2BAA56FA5F490055A2AF75C932D
:100100006B6CF9676DC11BFCE0E40D47FEF520E662
:10011000B500D0ED902E0300943577050080841E45
:10012000080000204E0A000000C80C333333330FA0
:10013000986E12831141EF8D2114893BE65516CF3D
:10014000FEE6DB18D1844B381BF77C1D901DA4BB49
:10015000E424203284725E228100C9F124ECA1E5FE
:100160003D2700000000250028002B0004040404A3
:100170000404040402020202020203030303030351
:10018000010204081020408001020408102001022E
:10019000040810200000000800020100000304070A
:1001A0000000000000000000D60711241FBECFEFA2
:1001B000D8E0DEBFCDBF23E0A0E3B1E001C01D92D7
:1001C000AA34B207E1F711E0A0E0B1E0EEEFF0E20F
:1001D00002C005900D92A033B107D9F710E0C5ED2C
:1001E000D0E004C02197FE010E94850EC43DD107D6
:1001F000C9F70E940F080C947D100C94000090E049
:10020000FC01EC56FE4F2491FC01E058FE4F349166
:10021000FC01E459FE4FE491EE23B1F0222339F0C2
:100220002330E9F090F4213001F1223011F1F0E0B7
:10023000EE0FFF1FEE59FE4FA591B4918FB7F894C2
:10024000EC913E2B3C938FBF08952730A9F02830C6
:10025000C9F0243061F7809180008F7D03C08091C8
:1002600080008F7780938000E2CF84B58F7784BD44
:10027000DECF84B58F7DFBCF8091B0008F778093E8
:10028000B000D5CF8091B0008F7DF9CF209153027F
:1002900081E0213208F044C080917A028111FCCFC4
:1002A0008091520292E090937A0291E090937902C9
:1002B0009FEF909378021092770220937602A2E348
:1002C000B2E0E4E5F2E090E0291331C0109275024B
:1002D00090917502880F892B80937502809174022A
:1002E000813049F510927402809175028093BB00B1
:1002F0008091BC0083FDF8CF85EC8093BC00809199
:100300007A028230E1F3809178028F3FB1F08091E0
:1003100078028032A1F080917802803391F084E0FD
:1003200010923102109253021092300208953D91C2
:1003300031939F5FC9CF85EEE0CF80E0F1CF82E0BF
:10034000EFCF83E0EDCF80917B0290917C02891BFF
:10035000990B089508950895AF92BF92CF92DF92BE
:10036000EF92FF920F931F93CF93DF936C017B016A
:100370008B01040F151FEB015E01AE18BF08C017FB
:10038000D10759F06991D601ED91FC910190F0816E
:10039000E02DC6010995892B79F7C501DF91CF9131
:1003A0001F910F91FF90EF90DF90CF90BF90AF9093
:1003B0000895FC01538D448D252F30E0842F90E06B
:1003C000821B930B541710F0CF9608950197089550
:1003D000FC01918D828D981761F0A28DAE0FBF2F19
:1003E000B11D5D968C91928D9F5F9F73928F90E06F
:1003F00008958FEF9FEF0895FC01918D828D9817DE
:1004000031F0828DE80FF11D858D90E008958FEF1A
:100410009FEF0895FC01918D228D892F90E0805CE3
:100420009F4F821B91098F73992708958DE992E060
:100430000E940A0221E0892B09F420E0822F08950E
:1004400080E090E0892B29F00E94160281110C9423
:1004500000000895FC01A48DA80FB92FB11DA35A67
:10046000BF4F2C91848D90E001968F739927848FD4
:10047000A689B7892C93A089B1898C9183708064F7
:100480008C93938D848D981306C00288F389E02D98
:1004900080818F7D80830895EF92FF920F931F9349
:1004A000CF93DF93EC0181E0888F9B8D8C8D981327
:1004B0001AC0E889F989808185FF15C09FB7F89433
:1004C000EE89FF896083E889F9898081837080647F
:1004D00080839FBF81E090E0DF91CF911F910F91CA
:1004E000FF90EF900895F62E0B8D10E00F5F1F4FD9
:1004F0000F731127E02E8C8D8E110CC00FB607FCE8
:10050000FACFE889F989808185FFF5CFCE010E9475
:100510002A02F1CFEB8DEC0FFD2FF11DE35AFF4FB7
:10052000F0829FB7F8940B8FEA89FB898081806203
:10053000CFCFCF93DF93EC01888D8823B9F0AA89C0
:10054000BB89E889F9898C9185FD03C0808186FD8E
:100550000DC00FB607FCF7CF8C9185FFF2CF8081DD
:1005600085FFEDCFCE010E942A02E9CFDF91CF9126
:1005700008953FB7F8948091180290911902A091C4
:100580001A02B0911B0226B5A89B05C02F3F19F097
:100590000196A11DB11D3FBFBA2FA92F982F882703
:1005A000BC01CD01620F711D811D911D42E0660FDE
:1005B000771F881F991F4A95D1F708958F929F92B0
:1005C000AF92BF92CF92DF92EF92FF924B015C010C
:1005D0000E94B9026B017C010E94B9026C197D096D
:1005E0008E099F09683E734081059105A8F321E0BB
:1005F000821A9108A108B10888EEC80E83E0D81EBF
:10060000E11CF11C81149104A104B10429F7FF90AD
:10061000EF90DF90CF90BF90AF909F908F90089514
:1006200085ED8093BC008091BC0084FDFCCF1092CE
:100630007A02089520915001260F3327331F21326B
:100640003105ECF420917A02FC0190E080E0243046
:1006500069F082E00895A09150012191AC01405DC4
:100660005E4FA40FB52FB11D2C930196861798F3FA
:1006700080915001680F6093500180E0089581E0FF
:1006800008950895E0917C0280917B02E81730F490
:10069000F0E0E358FD4F808190E008958FEF9FEFE9
:1006A000089590917C0280917B022FEF3FEF981785
:1006B00048F4E92FF0E0E358FD4F208130E09F5FE0
:1006C00090937C02C9010895CF92DF92EF92FF923E
:1006D0000F931F93CF93DF937C01CB018A0120916D
:1006E0003002222389F0EB016B01C40ED51ECC151C
:1006F000DD0569F06991D701ED91FC910190F081E0
:10070000E02DC7010995F3CF642F0E941A03C80199
:10071000DF91CF911F910F91FF90EF90DF90CF90DD
:100720000895CF93DF931F92CDB7DEB769832091F1
:1007300030022223F9F020915302203258F021E0B8
:1007400030E0FC013383228390E080E00F90DF9162
:10075000CF91089580913102E82FF0E0EE5CFD4FDB
:10076000998190838F5F809331028093530281E05F
:1007700090E0ECCF61E0CE0101960E941A03F7CF22
:1007800090E080E0089580917A028111FCCF81E0B1
:1007900080937A02809379029FEF9093780210926F
:1007A000770280937602809375028091750280684B
:1007B0008093750280917402813021F51092740249
:1007C000809175028093BB008091BC0083FDF8CFBF
:1007D00085EC8093BC0080917A028130E1F38091B6
:1007E000770292E0823010F490917702A4E5B2E0B3
:1007F000EDE7F2E080E0891307C010927C0280935D
:100800007B02089585EEE5CF2D9121938F5FF3CF85
:10081000CF93DF93EC0188819981009711F00E94BA
:10082000270F198218821D821C821B821A82DF9177
:10083000CF910895FC0180819181009711F00C9473
:10084000270F08950F931F93CF93DF93EC018881B7
:100850009981009759F02A813B812617370730F09C
:1008600081E0DF91CF911F910F9108958B016F5F10
:100870007F4F0E94B00F009759F0998388831B83A4
:100880000A832C813D81232B59F7FC011082E8CF8C
:1008900080E0E7CFEF92FF920F931F93CF93DF9308
:1008A0006115710541F480E0DF91CF911F910F91A7
:1008B000FF90EF90089541155105B1F07B01EC01D7
:1008C0000C811D81040F151FB8010E94220488238A
:1008D00051F3288139818C819D81B701820F931F4B
:1008E0000E9476101D830C8381E0DECFEF92FF9291
:1008F0000F931F93CF93DF93EC017B018A01BA0121
:100900000E94220481110BC0CE010E940804CE0176
:10091000DF91CF911F910F91FF90EF9008951D836C
:100920000C83B701888199810E947610F0CFEF92F5
:10093000FF920F931F93CF93DF93CDB7DEB7A197AD
:100940000FB6F894DEBF0FBECDBF7C01CB01BA015C
:10095000F7011182108213821282158214828E0195
:100960000F5F1F4F22E044E00E94680A0097C9F021
:10097000FC0101900020E9F73197AF01481B590BAA
:10098000BC01C7010E947604A1960FB6F894DEBFA1
:100990000FBECDBFDF91CF911F910F91FF90EF90D0
:1009A0000895C7010E940804EFCF1F920F920FB65F
:1009B0000F9211242F933F934F935F936F937F93E5
:1009C0008F939F93AF93BF93EF93FF938DE992E043
:1009D0000E942A02FF91EF91BF91AF919F918F9159
:1009E0007F916F915F914F913F912F910F900FBE2B
:1009F0000F901F9018951F920F920FB60F9211240F
:100A00002F938F939F93EF93FF93E091AD02F0911B
:100A1000AE028081E091B302F091B40282FD1BC06E
:100A200090818091B6028F5F8F732091B7028217F9
:100A300041F0E091B602F0E0E356FD4F958F8093D0
:100A4000B602FF91EF919F918F912F910F900FBE62
:100A50000F901F9018958081F4CF1F920F920FB6C0
:100A60000F9211242F933F938F939F93AF93BF9334
:100A70008091140290911502A0911602B091170274
:100A80003091130223E0230F2D3758F50196A11D55
:100A9000B11D209313028093140290931502A0932A
:100AA0001602B09317028091180290911902A0913A
:100AB0001A02B0911B020196A11DB11D809318026C
:100AC00090931902A0931A02B0931B02BF91AF91A9
:100AD0009F918F913F912F910F900FBE0F901F907C
:100AE000189526E8230F0296A11DB11DD2CF1F92A3
:100AF0000F920FB60F9211242F938F939F93EF9322
:100B0000FF9380916F008B7F80936F0080918100B5
:100B10008F7B8093810080911202209111022058D6
:100B200090911002893020F49695922B8F5FFACF26
:100B30009093100280910F028F5F803508F080E063
:100B400020910E02281739F0E82FF0E0E254FE4F12
:100B5000908380930F0210921202809181008F7B0C
:100B60008093810010921102FF91EF919F918F91DC
:100B70002F910F900FBE0F901F9018951F920F92FC
:100B80000FB60F9211242F933F934F938F939F9300
:100B9000EF93FF93209186003091870040911102DE
:100BA00080918100442349F18F7B809381001092D2
:100BB000110290911202911127C0411112C030937D
:100BC0008B0020938A0084E086BB80916F00846054
:100BD00080936F003093BD012093BC0181E080932E
:100BE0001202FF91EF919F918F914F913F912F9121
:100BF0000F900FBE0F901F90189580648093810016
:100C000080E880931102D5CF2091110280911002CB
:100C10008695822B9F5F9930D8F380931002809144
:100C20006F008B7F80936F0080910F028F5F803504
:100C300008F080E090910E02981749F0E82FF0E05C
:100C400090911002E254FE4F908380930F028091A6
:100C500081008F7B8093810010921102109212020A
:100C6000C0CF1F920F920FB60F9211242F933F9374
:100C70004F935F938F939F93EF93FF938091BB016B
:100C80002091BA0140918800509189009091B9015A
:100C90008A30F0F4322F3170893009F431E0269532
:100CA0008F5F9317A9F390918000332371F0906CBC
:100CB0009093800050938900409388003093B9014D
:100CC0002093BA018093BB0112C09F7B9068F0CF44
:100CD0009091B801E091B7019E1323C08A30A1F42E
:100CE0008BE08093BB015093890040938800FF9173
:100CF000EF919F918F915F914F913F912F910F9025
:100D00000FBE0F901F9018951092BB01809180002C
:100D10008F738093800080916F008D7F80936F0030
:100D2000E6CFEF5FE43408F0E0E0E093B701F0E0F5
:100D3000ED58FE4F90819093BA011092B9019091B5
:100D400080009F7B9068909380008A3031F45093AC
:100D500089004093880081E0B5CF80918400909114
:100D6000850040969093890080938800F4CF1F926D
:100D70000F920FB60F9211242F933F934F935F93CF
:100D80006F937F938F939F93AF93BF93EF93FF9353
:100D90008091B900887F803609F44AC0F0F5883226
:100DA00009F4A7C018F5803109F49BC0B8F4882372
:100DB00009F4F9C0883009F494C0FF91EF91BF9114
:100DC000AF919F918F917F916F915F914F913F91E3
:100DD0002F910F900FBE0F901F901895883109F436
:100DE00088C0803251F78093780214C0803409F4AF
:100DF0009DC040F48033B9F38833F9F680937802CC
:100E000085ECB0C0803509F485C0883509F496C0FA
:100E1000883499F60E941003D0CF883909F48CC029
:100E200038F5883729F050F4883611F0803729F6E4
:100E300083E080937A021092720157C0883809F4D7
:100E40007BC0803919F0803809F0B7CF80917201EA
:100E5000803208F071C0E091720181E08E0F8093C2
:100E600072018091BB00F0E0EE5AFE4F80833DC0DE
:100E7000803B39F0E0F4803A09F479C0883A09F00F
:100E80009CCF84E080937A0210925101109250011D
:100E9000E0911E02F0911F0209958091500181118D
:100EA0000FC081E0809350011092300109C0803C56
:100EB00009F4A6CF883C09F4A3CF883B09F07DCF85
:100EC000E091510181E08E0F80935101F0E0E05DEF
:100ED000FE4F80818093BB00909151018091500121
:100EE00029C0809175028093BB0085EC8093BC0083
:100EF00064CF9091770280917602981758F5E0912F
:100F0000770281E08E0F80937702F0E0EC5AFD4F7C
:100F10008081E9CFE091770281E08E0F80937702A4
:100F20008091BB00F0E0EC5AFD4F808390917702F6
:100F3000809176029817C8F285E8D8CFE0917702C1
:100F400081E08E0F809377028091BB00F0E0EC5A35
:100F5000FD4F80838091790281115CCF81E0809385
:100F6000740284EA8093BC0010927A0226CF85EC4A
:100F70008093BC0010927A0280917201803230F42A
:100F8000E0917201F0E0EE5AFE4F10826091720122
:100F900070E0E0911C02F0911D0282E591E009955C
:100FA000109272010ACF1092780234CFEDE9F2E08C
:100FB0001382128288EE93E0A0E0B0E084839583F0
:100FC000A683B7832AE031E03183208325EC30E02B
:100FD0003587248724EC30E03787268720EC30E003
:100FE000318B208B21EC30E0338B228B22EC30E0F4
:100FF000358B248B26EC30E0378B268B118E128EAE
:10100000138E148EEAE3F3E01382128284839583B5
:10101000A683B7838CE191E0918380830895CF9379
:10102000DF93CDB7DEB768970FB6F894DEBF0FBE7B
:10103000CDBF789484B5826084BD84B5816084BD61
:1010400085B5826085BD85B5816085BD80916E0066
:10105000816080936E001092810080918100826097
:1010600080938100809181008160809381008091D4
:1010700080008160809380008091B10084608093C3
:10108000B1008091B00081608093B00080917A00BF
:10109000846080937A0080917A00826080937A00E5
:1010A00080917A00816080937A0080917A008068D4
:1010B00080937A001092C10010927C0210927B0201
:1010C000109231021092530210927A0281E08093C2
:1010D00079021092740282E10E94FF0083E10E9473
:1010E000FF008091B9008E7F8093B9008091B90094
:1010F0008D7F8093B90088E48093B80085E4809365
:10110000BC008AEA91E090931F0280931E028BEA52
:1011100091E090931D0280931C02E091AD02F0914A
:10112000AE0282E08083E091A902F091AA021082CF
:10113000E091AB02F091AC028FEC80831092B5028B
:10114000E091B102F091B20286E08083E091AF02BB
:10115000F091B002808180618083E091AF02F091D4
:10116000B002808188608083E091AF02F091B0028C
:10117000808180688083E091AF02F091B00280812D
:101180008F7D8083109224021092250210922602F5
:101190001092270210922002109221021092220235
:1011A00010922302BB24B39480E4A82E90E0892EF1
:1011B00090E0992EB0923002A09252021092310229
:1011C0001092530265EF8AE393E00E9491030E941C
:1011D000460164EF71E080E090E00E94DE020E9430
:1011E000C30380917B0290917C02891B990B02972B
:1011F000E1F58AE393E00E9451036C018AE393E0F6
:101200000E9451038C01B60190E080E00E94C20C64
:1012100020E030E040E853E40E94230D2B013C0124
:10122000B80190E080E00E94C20C9B01AC01C301B8
:10123000B2010E94190E20E030E04AEF52E40E9411
:10124000230D20E030E040E857E30E94230D20E02A
:1012500030E040EC50E40E94180E60932C02709332
:101260002D0280932E0290932F02B09230021092A2
:1012700031021092530263EF8AE393E00E949103DC
:101280000E94460164EF71E080E090E00E94DE027F
:101290000E94C30380917B0290917C02891B990B71
:1012A0000297E1F58AE393E00E9451036C018AE31F
:1012B00093E00E9451038C01B60190E080E00E940F
:1012C000C20C20E030E040E853E40E94230D2B01E3
:1012D0003C01B80190E080E00E94C20C9B01AC018F
:1012E000C301B2010E94190E22E538EB4FE253E42C
:1012F0000E94230D20E030E040E857E30E94230DD8
:1013000026E636E64BE352E40E94180E609328026C
:101310007093290280932A0290932B02C090280296
:10132000D0902902E0902A02F0902B0240902C02EB
:1013300050902D0260902E0270902F02A70196010E
:1013400060912402709125028091260290912702DB
:101350000E94BD0C81110FC0A30192016091200277
:101360007091210280912202909123020E94BD0C73
:10137000882309F49BC0B701A601CE010D960E94F7
:101380009704B301A201CE0107960E9497041A8226
:1013900019821C821B821E821D8241E050E06AE29B
:1013A00071E0CE0101960E94760449895A896D85C3
:1013B0007E85CE0101960E944A04811104C0CE01AF
:1013C00001960E94080441E050E06CE271E0CE0119
:1013D00001960E944A04811104C0CE0101960E9428
:1013E00008044B855C856F817885CE0101960E944B
:1013F0004A04811104C0CE0101960E94080441E014
:1014000050E06EE271E0CE0101960E944A04811123
:1014100004C0CE0101960E9408041C8A1B8A1E8A01
:101420001D8A188E1F8A69817A816115710531F0D4
:101430004D815E81CE0143960E947604CE010196D5
:101440000E941A04CE0107960E941A04CE010D963E
:101450000E941A044F89588D6B897C898DE992E02E
:101460000E94AC01CE0143960E941A04809128028A
:1014700090912902A0912A02B0912B02809324021C
:1014800090932502A0932602B093270280912C020C
:1014900090912D02A0912E02B0912F0280932002F4
:1014A00090932102A0932202B093230260ED77E093
:1014B00080E090E00E94DE028114910409F47ACE6B
:1014C0000E941602882309F475CE0E94000072CE95
:1014D000EF920F931F93CF93DF93E80134E047FD22
:1014E00034E1042E000C550B57FF03C05195419574
:1014F0005109E32E022F242FAE010E94860ACE014D
:10150000DF91CF911F910F91EF900895A9E0B0E086
:10151000ECE8FAE00C94E70D6A01F22EB02E102FE1
:10152000FBE3AF2EA01608F41BE31F5F012F27E09B
:10153000AE014F5F5F4F0E94E50BBC018981982F80
:101540009970913009F43FC09BE2E1FC04C09E2DEC
:101550009170E0FC3AC05E2D5071E82FE87083FF77
:1015600046C084E0911101C083E0EF2DE81B8F1588
:1015700008F0E0E0D6018E2F20E2552351F19923A7
:1015800029F0D6019C93C60101966C0196012D5F4E
:101590003F4FE2FE24C08EE4D6018C9391E4119675
:1015A0009C93119712968C93D9018E2F90E2811102
:1015B0001BC0E20FF32FF11D10828EEF9FEF2996D3
:1015C000ECE00C94030E9DE2C6CF90E2C4CF2D93C5
:1015D00081508111FCCFCE0ED11CE0E0D0CF8EE641
:1015E000D6018C9391E6DBCF9D938150E0CF482FBD
:1015F000447082FF3DC084E0911101C083E08F15EB
:1016000010F4EF2DE81BD6018E2F20E2552309F1AF
:10161000992329F0D6019C93C60101966C0196018D
:101620002D5F3F4FE2FE1BC089E4D6018C938EE410
:1016300011968C93119786E412968C93D9018E2F74
:1016400090E2882309F4B5CF9D938150FACF2D9372
:1016500081508111FCCFCE0ED11CE0E0D9CF89E6BC
:10166000D6018C938EE611968C93119786E6E4CF83
:101670009B0177FF02C030E020E0A1E0B0E09111D3
:1016800002C0B0E0A0E0F9013196AE0FBF1F8B2C75
:10169000912CBB2009F461C05401EFEFAE1ABE0AD1
:1016A000AA0DBB1DFA161B0619F014F04F2D4A1B8C
:1016B000511188C0E3FC59C07601A42FB0E2A111FA
:1016C0004FC0C40ED11C992309F45BC040E0D60181
:1016D0001196F60190836D01552309F448C0012F3E
:1016E000060F9A81582F507184FF03C0913309F47B
:1016F000015010160CF047C0093008F008E0EEE287
:10170000FE2E5B01A01AB108850191948194910885
:101710002F3F320729F4D601FC92F60131966F0172
:101720006217730794F1021713077CF5DB01A21B04
:10173000B30BAA24A394B12CAC0EBD1EAA0DBB1DE5
:1017400011968C9121503109D60111962815390531
:10175000F4F0F60180836D01DBCFB12CA12CA0CF7A
:10176000F701B1937F01A150AACF9111B0CFD6015B
:10177000942F50E302C05D9391509111FCCFC40EA1
:10178000D11C40E0ACCF01E0BACF80E3DBCF6217E1
:10179000730731F4963388F4953311F4552369F0C7
:1017A000F6018083FD01842F90E2811108C0A40F0F
:1017B000B11D1C9290E080E002CF81E3F1CF9193C4
:1017C0008150F3CF911183CF8ACF283008F027E0E2
:1017D0003327DA01990F311D87FD9160009661056D
:1017E000710539F432602E5F3D9330E32A95E1F7BD
:1017F00008959F3F30F080387105610509F03C5F26
:101800003C5F3D93913008F08068911DDF93CF934A
:101810001F930F93FF92EF92192F987F9695E92FC0
:1018200096959695E90FFF27EE53FF4F992733279B
:10183000EE24FF24A701E70105900894079428F4FB
:10184000360FE71EF81E491F511D660F771F881FB0
:10185000991F0694A1F70590079428F4E70EF81E47
:10186000491F561FC11D770F881F991F661F0694B9
:10187000A1F70590079428F4F80E491F561FC71FBB
:10188000D11D880F991F661F771F0694A1F7059039
:10189000079420F4490F561FC71FD81F990F661FC2
:1018A000771F881F0694A9F784911095177041F04F
:1018B000D695C79557954795F794E7941A95C1F72C
:1018C000E8E6F0E068941590159135916591959151
:1018D00005907FE27395E118F10A430B560BC90B93
:1018E000D009C0F7E10CF11E431F561FC91FD01DC0
:1018F0007EF4703311F48A95E6CFE894015030F00D
:10190000080F0AF40027021708F4202F2395022F4E
:101910007A3328F079E37D932A95E9F710C07D9317
:101920002A9589F606949795679537951795179494
:10193000E118F10A430B560BC90BD00998F0239517
:101940007E9173957A3308F070E37C932013B8F797
:101950007E9170617D9330F0839571E37D9370E3A8
:101960002A95E1F71124EF90FF900F911F91CF91ED
:10197000DF91992787FD909508950E94FF0C08F448
:1019800081E00895E89409C097FB3EF49095809516
:10199000709561957F4F8F4F9F4F9923A9F0F92F35
:1019A00096E9BB279395F695879577956795B795B3
:1019B000F111F8CFFAF4BB0F11F460FF1BC06F5F99
:1019C0007F4F8F4F9F4F16C0882311F096E911C0AB
:1019D000772321F09EE8872F762F05C0662371F0CC
:1019E00096E8862F70E060E02AF09A95660F771FE0
:1019F000881FDAF7880F9695879597F90895990FBC
:101A00000008550FAA0BE0E8FEEF16161706E807C8
:101A1000F907C0F012161306E407F50798F0621BE9
:101A2000730B840B950B39F40A2661F0232B242BBE
:101A3000252B21F408950A2609F4A140A6958FEFDD
:101A4000811D811D08950E94360D0C94A70D0E94E2
:101A5000990D38F00E94A00D20F0952311F00C9400
:101A6000900D0C94960D11240C94DB0D0E94B80D72
:101A700070F3959FC1F3950F50E0551F629FF001E1
:101A8000729FBB27F00DB11D639FAA27F00DB11DFA
:101A9000AA1F649F6627B00DA11D661F829F222783
:101AA000B00DA11D621F739FB00DA11D621F839F0A
:101AB000A00D611D221F749F3327A00D611D231FE0
:101AC000849F600D211D822F762F6A2F11249F572E
:101AD00050409AF0F1F088234AF0EE0FFF1FBB1F31
:101AE000661F771F881F91505040A9F79E3F5105F0
:101AF00080F00C94900D0C94DB0D5F3FE4F3983E66
:101B0000D4F3869577956795B795F795E7959F5F99
:101B1000C1F7FE2B880F911D9695879597F908952B
:101B200097F99F6780E870E060E008959FEF80EC90
:101B3000089500240A941616170618060906089533
:101B400000240A9412161306140605060895092E99
:101B50000394000C11F4882352F0BB0F40F4BF2B08
:101B600011F460FF04C06F5F7F4F8F4F9F4F089548
:101B700057FD9058440F551F59F05F3F71F047953E
:101B8000880F97FB991F61F09F3F79F08795089523
:101B9000121613061406551FF2CF4695F1DF08C042
:101BA000161617061806991FF1CF8695710561055F
:101BB00008940895E894BB2766277727CB0197F907
:101BC00008952F923F924F925F926F927F928F92E1
:101BD0009F92AF92BF92CF92DF92EF92FF920F93BC
:101BE0001F93CF93DF93CDB7DEB7CA1BDB0B0FB6C6
:101BF000F894DEBF0FBECDBF09942A883988488883
:101C00005F846E847D848C849B84AA84B984C88418
:101C1000DF80EE80FD800C811B81AA81B981CE0F0F
:101C2000D11D0FB6F894DEBF0FBECDBFED010895F4
:101C30005058BB27AA270E94300E0C94A70D0E9473
:101C4000990D38F00E94A00D20F039F49F3F19F44F
:101C500026F40C94960D0EF4E095E7FB0C94900D91
:101C6000E92F0E94B80D58F3BA176207730784076B
:101C7000950720F079F4A6F50C94DA0D0EF4E095B2
:101C80000B2EBA2FA02D0B01B90190010C01CA0136
:101C9000A0011124FF27591B99F0593F50F4503EE1
:101CA00068F11A16F040A22F232F342F4427585FD3
:101CB000F3CF469537952795A795F0405395C9F7EB
:101CC0007EF41F16BA0B620B730B840BBAF09150A3
:101CD000A1F0FF0FBB1F661F771F881FC2F70EC042
:101CE000BA0F621F731F841F48F487957795679515
:101CF000B795F7959E3F08F0B0CF9395880F08F001
:101D00009927EE0F979587950895EE0FFF1F059081
:101D1000F491E02D09940F931F93CF93DF938230BA
:101D2000910510F482E090E0E0914803F0914903BE
:101D300030E020E0B0E0A0E0309799F421153105C3
:101D400009F44AC0281B390B24303105D8F58A81A3
:101D50009B816115710589F1FB0193838283FE01EB
:101D600011C0408151810281138148175907E0F069
:101D70004817590799F4109761F012960C9312972F
:101D800013961C933296CF01DF91CF911F910F9143
:101D900008950093480310934903F4CF21153105AA
:101DA00051F04217530738F0A901DB019A01BD0138
:101DB000DF01F801C1CFEF01F9CF90934903809380
:101DC0004803CDCFFE01E20FF31F81939193225080
:101DD000310939832883D7CF2091460330914703B7
:101DE000232B41F4209102013091030130934703EA
:101DF0002093460320910001309101012115310506
:101E000041F42DB73EB74091040150910501241BC8
:101E1000350BE0914603F0914703E217F307A0F476
:101E20002E1B3F0B2817390778F0AC014E5F5F4F30
:101E30002417350748F04E0F5F1F50934703409318
:101E40004603819391939FCFF0E0E0E09CCFCF9346
:101E5000DF930097E9F0FC01329713821282A09180
:101E60004803B0914903ED0130E020E01097A1F460
:101E700020813181820F931F2091460330914703C7
:101E80002817390709F061C0F0934703E093460330
:101E9000DF91CF910895EA01CE17DF07E8F54A8177
:101EA0005B819E0141155105B1F7E901FB83EA838E
:101EB00049915991C40FD51FEC17FD0761F480813A
:101EC00091810296840F951FE9019983888382810D
:101ED00093819B838A83F0E0E0E012968D919C9140
:101EE00013970097B9F52D913C911197CD0102966A
:101EF000820F931F2091460330914703281739071B
:101F000039F6309751F51092490310924803B09377
:101F10004703A0934603BCCFD383C2834081518142
:101F2000840F951FC817D90761F44E5F5F4F8881F2
:101F30009981480F591F518340838A819B819383E4
:101F400082832115310509F0B0CFF0934903E09366
:101F500048039ECFFD01DC01C0CF13821282D7CF90
:101F6000B0E0A0E0E6EBFFE00C94E30D8C010097FD
:101F700051F4CB010E948B0E8C01C801CDB7DEB7A6
:101F8000E0E10C94FF0DFC01E60FF71F9C012250CD
:101F90003109E217F30708F49DC0D901CD91DC9116
:101FA0001197C617D70798F0C530D10530F3CE0189
:101FB00004978617970708F3C61BD70B2297C19380
:101FC000D1936D937C93CF010E94270FD6CF5B01F5
:101FD000AC1ABD0A4C018C0E9D1EA0914803B09115
:101FE0004903512C412CF12CE12C109731F58091B3
:101FF0004603909147038815990509F05CC0461681
:10200000570608F058C08091000190910101009797
:1020100041F48DB79EB74091040150910501841B96
:10202000950BE817F90708F055C0F0934703E093C4
:102030004603F90171836083A0CF8D919C91119724
:1020400012966C90129713967C901397A815B90569
:1020500059F56C0142E0C40ED11CCA14DB0420F116
:10206000AC014A195B09DA011296159780F0628279
:10207000738251834083D9016D937C93E114F10401
:1020800071F0D7011396FC93EE93129776CF2296B8
:102090008C0F9D1FF90191838083F301EFCFF093A3
:1020A0004903E093480369CF4816590608F42C0108
:1020B0007D01D3019ACFCB010E948B0E7C0100974A
:1020C00049F0AE01B8010E946D10C8010E94270FAF
:1020D000870153CF10E000E050CFFB01DC0102C0CC
:1020E00001900D9241505040D8F70895FB01DC015A
:0E20F00001900D920020E1F70895F894FFCFC3
:1020FE0000004A038000000000004C02AC01D90130
:10210E0099020A02E801FC01000000009103640339
:10211E00C0034103A301510342033C003A003E00B9
:107E0000112484B714BE81FFF0D085E080938100F7
:107E100082E08093C00088E18093C10086E0809377
:107E2000C20080E18093C4008EE0C9D0259A86E02C
:107E300020E33CEF91E0309385002093840096BBD3
:107E4000B09BFECF1D9AA8958150A9F7CC24DD24C4
:107E500088248394B5E0AB2EA1E19A2EF3E0BF2EE7
:107E6000A2D0813461F49FD0082FAFD0023811F036
:107E7000013811F484E001C083E08DD089C08234E0
:107E800011F484E103C0853419F485E0A6D080C0E4
:107E9000853579F488D0E82EFF2485D0082F10E0AE
:107EA000102F00270E291F29000F111F8ED06801E7
:107EB0006FC0863521F484E090D080E0DECF843638
:107EC00009F040C070D06FD0082F6DD080E0C81688
:107ED00080E7D80618F4F601B7BEE895C0E0D1E017
:107EE00062D089930C17E1F7F0E0CF16F0E7DF06D8
:107EF00018F0F601B7BEE89568D007B600FCFDCFD4
:107F0000A601A0E0B1E02C9130E011968C91119780
:107F100090E0982F8827822B932B1296FA010C0160
:107F200087BEE89511244E5F5F4FF1E0A038BF0790
:107F300051F7F601A7BEE89507B600FCFDCF97BE46
:107F4000E89526C08437B1F42ED02DD0F82E2BD052
:107F50003CD0F601EF2C8F010F5F1F4F84911BD097
:107F6000EA94F801C1F70894C11CD11CFA94CF0C13
:107F7000D11C0EC0853739F428D08EE10CD085E9AC
:107F80000AD08FE07ACF813511F488E018D01DD067
:107F900080E101D065CF982F8091C00085FFFCCF94
:107FA0009093C60008958091C00087FFFCCF809118
:107FB000C00084FD01C0A8958091C6000895E0E648
:107FC000F0E098E1908380830895EDDF803219F02E
:107FD00088E0F5DFFFCF84E1DECF1F93182FE3DFCA
:107FE0001150E9F7F2DF1F91089580E0E8DFEE27F6
:047FF000FF270994CA
:027FFE00040479
:0400000300007E007B
:00000001FF
