:100000000C94DB000C9403010C9403010C94030189
:100010000C9403010C9403010C9403010C94030150
:100020000C9403010C9403010C946C070C941608B7
:100030000C9425070C9403010C9403010C94030108
:100040000C94DB060C9403010C94A9060C94830613
:100050000C9403010C9403010C9403010C94030110
:100060000C94AC080C94030100407A10F35A00A0E1
:10007000724E18090010A5D4E80000E87648170071
:1000800000E40B54020000CA9A3B000000E1F505B1
:10009000000080969800000040420F000000A086FB
:1000A00001000000102700000000E803000000002D
:1000B0006400000000000A000000000001000000D1
:1000C00000002C76D888DC674F0823DFC1DFAE59EB
:1000D000E1B1B796E5E3E453C63AE651997696E87E
:1000E000E6C28426EB898C9B62ED407C6FFCEFBC02
:1000F0009C9F40F2BAA56FA5F490055A2AF75C932D
:100100006B6CF9676DC11BFCE0E40D47FEF520E662
:10011000B500D0ED902E0300943577050080841E45
:10012000080000204E0A000000C80C333333330FA0
:10013000986E12831141EF8D2114893BE65516CF3D
:10014000FEE6DB18D1844B381BF77C1D901DA4BB49
:10015000E424203284725E228100C9F124ECA1E5FE
:100160003D2700000000240027002A0000000000B6
:10017000250028002B0004040404040404040202E3
:100180000202020203030303030301020408102016
:100190004080010204081020010204081020000021
:1001A0000008000201000003040700000000000036
:1001B0000000CB09C00C11241FBECFEFD8E0DEBF7A
:1001C000CDBF23E0A4E8B1E001C01D92A63AB2077A
:1001D000E1F711E0A0E0B1E0EAE9F7E202C0059042
:1001E0000D92A438B107D9F710E0CAEDD0E004C0F1
:1001F0002197FE010E94C811C93DD107C9F70E948D
:10020000100A0C94C0130C94000090E0FC01E2561C
:10021000FE4F2491FC01E657FE4F3491FC01EA5851
:10022000FE4FE491EE23B1F0222339F02330E9F0C0
:1002300090F4213001F1223011F1F0E0EE0FFF1FB8
:10024000E459FE4FA591B4918FB7F894EC913E2BF1
:100250003C938FBF08952730A9F02830C9F024308F
:1002600061F7809180008F7D03C0809180008F773F
:1002700080938000E2CF84B58F7784BDDECF84B5D4
:100280008F7DFBCF8091B0008F778093B000D5CF6A
:100290008091B0008F7DF9CF2091A30281E02132BF
:1002A00008F044C08091CA028111FCCF8091A20263
:1002B00092E09093CA0291E09093C9029FEF9093CD
:1002C000C8021092C7022093C602A2E8B2E0E4EA94
:1002D000F2E090E0291331C01092C5029091C5025E
:1002E000880F892B8093C5028091C402813049F523
:1002F0001092C4028091C5028093BB008091BC0023
:1003000083FDF8CF85EC8093BC008091CA028230D7
:10031000E1F38091C8028F3FB1F08091C802803232
:10032000A1F08091C802803391F084E010928102A4
:100330001092A3021092800208953D9131939F5F25
:10034000C9CF85EEE0CF80E0F1CF82E0EFCF83E050
:10035000EDCF8091CB029091CC02891B990B08952F
:1003600008950895AF92BF92CF92DF92EF92FF92DD
:100370000F931F93CF93DF936C017B018B01040FCD
:10038000151FEB015E01AE18BF08C017D10759F069
:100390006991D601ED91FC910190F081E02DC601AB
:1003A0000995892B79F7C501DF91CF911F910F91A5
:1003B000FF90EF90DF90CF90BF90AF900895FC0139
:1003C000538D448D252F30E0842F90E0821B930BBA
:1003D000541710F0CF96089501970895FC01918D60
:1003E000828D981761F0A28DAE0FBF2FB11D5D9663
:1003F0008C91928D9F5F9F73928F90E008958FEF05
:100400009FEF0895FC01918D828D981731F0828DB8
:10041000E80FF11D858D90E008958FEF9FEF08950F
:10042000FC01918D228D892F90E0805C9F4F821B73
:1004300091098F73992708958DEE92E00E94100222
:1004400021E0892B09F420E0822F089580E090E0DC
:10045000892B29F00E941C0281110C940000089540
:10046000FC01A48DA80FB92FB11DA35ABF4F2C9129
:10047000848D90E001968F739927848FA689B78920
:100480002C93A089B1898C91837080648C93938D17
:10049000848D981306C00288F389E02D80818F7DBA
:1004A00080830895EF92FF920F931F93CF93DF9372
:1004B000EC0181E0888F9B8D8C8D98131AC0E889A0
:1004C000F989808185FF15C09FB7F894EE89FF896F
:1004D0006083E889F98980818370806480839FBF0D
:1004E00081E090E0DF91CF911F910F91FF90EF900D
:1004F0000895F62E0B8D10E00F5F1F4F0F7311271D
:10050000E02E8C8D8E110CC00FB607FCFACFE88957
:10051000F989808185FFF5CFCE010E943002F1CFAD
:10052000EB8DEC0FFD2FF11DE35AFF4FF0829FB7CB
:10053000F8940B8FEA89FB8980818062CFCFCF93BB
:10054000DF93EC01888D8823B9F0AA89BB89E889FB
:10055000F9898C9185FD03C0808186FD0DC00FB6A1
:1005600007FCF7CF8C9185FFF2CF808185FFEDCF1F
:10057000CE010E943002E9CFDF91CF9108953FB7BD
:10058000F8948091660290916702A0916802B09100
:10059000690226B5A89B05C02F3F19F00196A11D41
:1005A000B11D3FBFBA2FA92F982F8827BC01CD01BD
:1005B000620F711D811D911D42E0660F771F881F1C
:1005C000991F4A95D1F708958F929F92AF92BF924B
:1005D000CF92DF92EF92FF924B015C010E94BF022B
:1005E0006B017C010E94BF026C197D098E099F0975
:1005F000683E734081059105A8F321E0821A9108B5
:10060000A108B10888EEC80E83E0D81EE11CF11CD9
:1006100081149104A104B10429F7FF90EF90DF90B9
:10062000CF90BF90AF909F908F900895509172029D
:1006300040917102852F90E0242F30E0541718F07C
:10064000821B930B0895805B9F4FFACF80917202BB
:10065000E09171028E1751F0EF5FE03508F0E0E0B5
:10066000F0E0EF5EFD4F808190E008958FEF9FEF07
:1006700008958091720290917102891769F09F5FCD
:10068000903508F090E0E92FF0E0EF5EFD4F8081BB
:100690009093710290E008958FEF9FEF089585ED9C
:1006A0008093BC008091BC0084FDFCCF1092CA02F4
:1006B00008952091A401260F3327331F21323105DD
:1006C000ECF42091CA02FC0190E080E0243069F053
:1006D00082E00895A091A4012191AC014C575E4F96
:1006E000A40FB52FB11D2C930196861798F3809116
:1006F000A401680F6093A40180E0089581E008954B
:100700000895E091CC028091CB02E81730F4F0E03C
:10071000E353FD4F808190E008958FEF9FEF0895A0
:100720009091CC028091CB022FEF3FEF981748F4C5
:10073000E92FF0E0E353FD4F208130E09F5F90937D
:10074000CC02C9010895CF92DF92EF92FF920F93EE
:100750001F93CF93DF937C01CB018A01209180020C
:10076000222389F0EB016B01C40ED51ECC15DD05EB
:1007700069F06991D701ED91FC910190F081E02D34
:10078000C7010995F3CF642F0E945903C801DF9177
:10079000CF911F910F91FF90EF90DF90CF90089530
:1007A000CF93DF931F92CDB7DEB76983209180028C
:1007B0002223F9F02091A302203258F021E030E00A
:1007C000FC013383228390E080E00F90DF91CF9192
:1007D000089580918102E82FF0E0EE57FD4F998156
:1007E00090838F5F809381028093A30281E090E0E9
:1007F000ECCF61E0CE0101960E945903F7CF8091C2
:1008000070028111FCCF089580916F028F5F843454
:1008100008F080E090916E029817E1F32FB7F894FA
:1008200090917002992359F0E82FF0E0E953FE4FC0
:10083000608380936F022FBF81E090E0089581E094
:100840008093700260930C0210920B0282E086BBD0
:1008500080916F00826080936F00809180008F7B19
:1008600080688093800080918400909185004096FC
:100870009093890080938800DECF90E080E0089517
:100880008091CA028111FCCF81E08093CA028093DB
:10089000C9029FEF9093C8021092C7028093C602CC
:1008A0008093C5028091C50280688093C5028091C3
:1008B000C402813021F51092C4028091C502809358
:1008C000BB008091BC0083FDF8CF85EC8093BC0019
:1008D0008091CA028130E1F38091C70292E08230B8
:1008E00010F49091C702A4EAB2E0EDECF2E080E0EF
:1008F000891307C01092CC028093CB02089585EE35
:10090000E5CF2D9121938F5FF3CFFB010190002064
:10091000E9F73197AF01461B570BDC01ED91FC91D4
:100920000280F381E02D09948F929F92AF92BF9243
:100930000F931F93CF93DF93CDB7DEB7A1970FB679
:10094000F894DEBF0FBECDBF19A2423008F44AE0D2
:100950008E010F5D1F4F842E912CB12CA12CA5016F
:1009600094010E94A611E62FB901CA01EA3004F5EC
:10097000E05DD801EE938D01232B242B252B79F7F5
:1009800090E080E0109729F0BD018DEE92E00E948A
:100990008504A1960FB6F894DEBF0FBECDBFDF91E0
:1009A000CF911F910F91BF90AF909F908F9008951E
:1009B000E95CDFCF4F925F926F927F928F929F920E
:1009C000AF92BF92CF92DF92EF92FF920F931F935D
:1009D000CF936B017C01742EAC019B010E94A1118D
:1009E0006CE371E0811126C046015701E894B7F825
:1009F0002FEF3FEF4FE75FE7C501B4010E94A11160
:100A000081110CC02FEF3FEF4FE75FE7C501B40145
:100A10000E94330F60E471E0181664F02FEF3FEF8F
:100A20004FE75FE4C701B6010E949C111816ACF4B1
:100A300064E471E08DEE92E0CF911F910F91FF90F1
:100A4000EF90DF90CF90BF90AF909F908F907F906E
:100A50006F905F904F900C9485042FEF3FEF4FE71E
:100A60005FECC701B6010E94330F87FDE1CF20E0A4
:100A700030E0A901C701B6010E94330F10E000E089
:100A800087FF0AC06DE28DEE92E00E9452028C0157
:100A9000F7FAF094F7F8F094C0E060E070E080E0DE
:100AA0009FE37C1641F020E030E040E251E40E94F8
:100AB000FB10CF5FF6CFA70196010E948F102B018C
:100AC0003C010E946D114B015C014AE00E949404BC
:100AD0007C01E00EF11ECC23C1F1C501B4010E94DE
:100AE000380F9B01AC01C301B2010E948E104B0173
:100AF0005C016EE28DEE92E00E945202E80EF91E59
:100B0000C15018F120E030E040E251E4C501B401E9
:100B10000E94990F2B013C010E946D114B01B12CD9
:100B2000A12C4AE0C501B4010E949404E80EF91E0C
:100B3000C501B4010E94380F9B01AC01C301B20191
:100B40000E948E104B015C01DBCFC701CF911F913A
:100B50000F91FF90EF90DF90CF90BF90AF909F905C
:100B60008F907F906F905F904F900895CF93DF9319
:100B7000EC0188819981009711F00E946A12198214
:100B800018821D821C821B821A82DF91CF910895E8
:100B9000FC0180819181009711F00C946A120895F4
:100BA0000F931F93CF93DF93EC0188819981009776
:100BB00059F02A813B812617370730F081E0DF9119
:100BC000CF911F910F9108958B016F5F7F4F0E940E
:100BD000F312009759F0998388831B830A832C8131
:100BE0003D81232B59F7FC011082E8CF80E0E7CF4D
:100BF000EF92FF920F931F93CF93DF9361157105CF
:100C000041F480E0DF91CF911F910F91FF90EF9021
:100C1000089541155105B1F07B01EC010C811D8156
:100C2000040F151FB8010E94D005882351F32881B5
:100C300039818C819D81B701820F931F0E94B91366
:100C40001D830C8381E0DECFEF92FF920F931F9301
:100C5000CF93DF93EC017B018A01BA010E94D0059A
:100C600081110BC0CE010E94B605CE01DF91CF915C
:100C70001F910F91FF90EF9008951D830C83B70192
:100C8000888199810E94B913F0CFEF92FF920F9360
:100C90001F93CF93DF93CDB7DEB7A1970FB6F8942C
:100CA000DEBF0FBECDBF7C01CB01BA01F7011182BF
:100CB000108213821282158214828E010F5F1F4FE1
:100CC00022E044E00E94DE0C0097C9F0FC01019094
:100CD0000020E9F73197AF01481B590BBC01C70150
:100CE0000E942406A1960FB6F894DEBF0FBECDBFBA
:100CF000DF91CF911F910F91FF90EF900895C70161
:100D00000E94B605EFCF1F920F920FB60F921124DB
:100D10002F933F934F935F936F937F938F939F9303
:100D2000AF93BF93EF93FF938DEE92E00E9430025A
:100D3000FF91EF91BF91AF919F918F917F916F91B3
:100D40005F914F913F912F910F900FBE0F901F9089
:100D500018951F920F920FB60F9211242F938F9315
:100D60009F93EF93FF93E091FD02F091FE0280814B
:100D7000E0910303F091040382FD1BC090818091F8
:100D800006038F5F8F7320910703821741F0E09174
:100D90000603F0E0E351FD4F958F80930603FF912A
:100DA000EF919F918F912F910F900FBE0F901F90F9
:100DB00018958081F4CF1F920F920FB60F921124D5
:100DC0002F933F938F939F93AF93BF938091620232
:100DD00090916302A0916402B0916502309161022A
:100DE00023E0230F2D3758F50196A11DB11D209347
:100DF00061028093620290936302A0936402B093B5
:100E000065028091660290916702A0916802B0919C
:100E100069020196A11DB11D80936602909367023D
:100E2000A0936802B0936902BF91AF919F918F9197
:100E30003F912F910F900FBE0F901F90189526E8AD
:100E4000230F0296A11DB11DD2CF1F920F920FB694
:100E50000F9211242F938F939F93EF93FF93809181
:100E60006F008B7F80936F00809181008F7B8093D8
:100E700081008091730220911002205890910F02FE
:100E8000893020F49695922B8F5FFACF90930F02C2
:100E9000809172028F5F803508F080E020917102AE
:100EA000281739F0E82FF0E0EF5EFD4F9083809334
:100EB000720210927302809181008F7B8093810077
:100EC00010921002FF91EF919F918F912F910F90AF
:100ED0000FBE0F901F9018951F920F920FB60F9292
:100EE00011242F933F934F935F936F937F938F932F
:100EF0009F93AF93BF93EF93FF9380918600909160
:100F0000870040911002209181004423F1F12F7B52
:100F100020938100109210023091730231113CC075
:100F2000411122C02091740230917502280F391F9F
:100F300030938B0020938A0024E026BB20916F0021
:100F4000246020936F002091760230917702820F07
:100F5000931F36952795280F391F30930E02209343
:100F60000D0281E080937302FF91EF91BF91AF91E9
:100F70009F918F917F916F915F914F913F912F91B1
:100F80000F900FBE0F901F90189520642093810042
:100F900020E820931002C0CF40910D0250910E0224
:100FA0006091760270917702DB01A095B095E09197
:100FB000100220910F02841B950BA817B90768F146
:100FC00026952E2B460F571F3F5F861B970B3930F8
:100FD000A0F320930F0280916F008B7F80936F00AE
:100FE000809172028F5F803508F080E090917102ED
:100FF000981749F0E82FF0E090910F02EF5EFD4F57
:10100000908380937202809181008F7B8093810016
:101010001092100210927302A7CF20930F025093E8
:101020000E0240930D02309373029ECF1F920F92D7
:101030000FB60F9211242F933F934F935F936F93AB
:101040007F938F939F93EF93FF9320917002609112
:101050000C02809188009091890040917602509115
:10106000770230910B022A3070F5840F951F762F8E
:101070007170293009F471E066952F5F371799F385
:10108000309180007723E1F0306C309380009093B2
:1010900089008093880070930B0260930C02209368
:1010A0007002FF91EF919F918F917F916F915F916E
:1010B0004F913F912F910F900FBE0F901F90189559
:1010C0003F7B3068E2CF30916F02E0916E023E13B9
:1010D00019C02A3051F42BE020937002840F951F21
:1010E0009093890080938800DCCF109270028091E9
:1010F00080008F738093800080916F008D7F80933C
:101100006F00CFCFEF5FE43408F0E0E0E0936E02D1
:10111000F0E0E953FE4F308130930C0210920B0245
:10112000309180003F7B3068309380002A3071F42A
:101130002091760230917702820F931F909389005D
:101140008093880081E080937002ABCF809184000F
:10115000909185004096F2CF1F920F920FB60F929A
:1011600011242F933F934F935F936F937F938F93AC
:101170009F93AF93BF93EF93FF938091B900887FC4
:10118000803609F44AC0F0F5883209F4A7C018F592
:10119000803109F49BC0B8F4882309F4F9C0883081
:1011A00009F494C0FF91EF91BF91AF919F918F91FE
:1011B0007F916F915F914F913F912F910F900FBE53
:1011C0000F901F901895883109F488C0803251F72C
:1011D0008093C80214C0803409F49DC040F4803369
:1011E000B9F38833F9F68093C80285ECB0C0803536
:1011F00009F485C0883509F496C0883499F60E94B0
:101200004F03D0CF883909F48CC038F5883729F0DE
:1012100050F4883611F0803729F683E08093CA02B3
:101220001092C60157C0883809F47BC0803919F084
:10123000803809F0B7CF8091C601803208F071C0C4
:10124000E091C60181E08E0F8093C6018091BB00C2
:10125000F0E0EA55FE4F80833DC0803B39F0E0F47A
:10126000803A09F479C0883A09F09CCF84E08093F1
:10127000CA021092A5011092A401E0916C02F091B3
:101280006D0209958091A40181110FC081E08093C6
:10129000A4011092840109C0803C09F4A6CF883CC7
:1012A00009F4A3CF883B09F07DCFE091A50181E04F
:1012B0008E0F8093A501F0E0EC57FE4F8081809364
:1012C000BB009091A5018091A40129C08091C50225
:1012D0008093BB0085EC8093BC0064CF9091C702E3
:1012E0008091C602981758F5E091C70281E08E0FF1
:1012F0008093C702F0E0EC55FD4F8081E9CFE0918B
:10130000C70281E08E0F8093C7028091BB00F0E09E
:10131000EC55FD4F80839091C7028091C6029817CB
:10132000C8F285E8D8CFE091C70281E08E0F8093A4
:10133000C7028091BB00F0E0EC55FD4F80838091A7
:10134000C90281115CCF81E08093C40284EA80935A
:10135000BC001092CA0226CF85EC8093BC0010928C
:10136000CA028091C601803230F4E091C601F0E0FB
:10137000EA55FE4F10826091C60170E0E0916A026A
:10138000F0916B0286EA91E009951092C6010ACFAE
:101390001092C80234CFEDEEF2E01382128288EE92
:1013A00093E0A0E0B0E084839583A683B7832AE02E
:1013B00031E03183208325EC30E03587248724EC2D
:1013C00030E03787268720EC30E0318B208B21EC12
:1013D00030E0338B228B22EC30E0358B248B26ECF3
:1013E00030E0378B268B118E128E138E148EEAE826
:1013F000F3E01382128284839583A683B7832CE162
:1014000031E031832083E6E9F3E0138212828483A2
:101410009583A683B7838EE291E0918380830895BC
:10142000CF93DF93CDB7DEB768970FB6F894DEBFE2
:101430000FBECDBF789484B5826084BD84B58160D1
:1014400084BD85B5826085BD85B5816085BD80918F
:101450006E00816080936E00109281008091810007
:1014600082608093810080918100816080938100FF
:10147000809180008160809380008091B1008460C1
:101480008093B1008091B00081608093B000809122
:101490007A00846080937A0080917A0082608093E1
:1014A0007A0080917A00816080937A0080917A003E
:1014B000806880937A001092C1001092CC02109242
:1014C000CB02109281021092A3021092CA0281E014
:1014D0008093C9021092C40282E10E94050183E157
:1014E0000E9405018091B9008E7F8093B9008091A0
:1014F000B9008D7F8093B90088E48093B80085E4BB
:101500008093BC0080EB91E090936D0280936C021D
:1015100081EB91E090936B0280936A02E091FD026F
:10152000F091FE0282E08083E091F902F091FA02EC
:101530001082E091FB02F091FC028FEC808310920C
:101540000503E0910103F091020386E08083E091BE
:10155000FF02F0910003808180618083E091FF02AF
:10156000F0910003808188608083E091FF02F09118
:101570000003808180688083E091FF02F091000386
:1015800080818F7D808310926F001092800081E8AF
:101590008093810083E896E09093770280937602AF
:1015A0008BE39CE39093750280937402E2E9F1E08F
:1015B0002491EEE7F1E084918823C9F090E0880F50
:1015C000991FFC01EE59FE4F45915491FC01E459DD
:1015D000FE4FA591B4919FB7F894FA013081822F04
:1015E000809583238083EC91E22BEC939FBF89E06D
:1015F0000E940501E3E9F1E02491EFE7F1E0849135
:10160000882399F090E0880F991FFC01EE59FE4F56
:10161000A591B491FC01E459FE4F859194918FB747
:10162000F894EC91E22BEC938FBF1092730210921E
:101630007202109271021092700210926F02109258
:101640006E0280E286BB80936F00BB24B39480E47B
:10165000A82E90E0E92E90E0F92EB0928002A092A0
:10166000A202109281021092A30265EF8AE893E031
:101670000E94D0030E944C0164EF71E080E090E092
:101680000E94E4020E9440048091CB029091CC021F
:10169000891B990B029709F059C08AE893E00E94D0
:1016A00090036C018AE893E00E9490038C01B601DC
:1016B00090E080E00E94380F20E030E040E853E402
:1016C0000E94990F2B013C01B80190E080E00E943C
:1016D000380F9B01AC01C301B2010E948F1020E0C2
:1016E00030E04AEF52E40E94990F20E030E040E8F9
:1016F00057E30E94990F20E030E040EC50E40E9454
:101700008E1060937C0270937D0280937E02909392
:101710007F0268E471E08DEE92E00E9485046091A2
:101720007C0270917D0280917E0290917F0242E066
:101730000E94DA046CE571E08DEE92E00E9485046F
:1017400061E671E08DEE92E00E948504B092800225
:10175000A092A202109281021092A30263EF8AE883
:1017600093E00E94D0030E944C0164EF71E080E09E
:1017700090E00E94E4020E9440048091CB0290918C
:10178000CC02891B990B029709F0E8C08AE893E024
:101790000E9490036C018AE893E00E9490038C0100
:1017A000B60190E080E00E94380F20E030E040E891
:1017B00053E40E94990F2B013C01B80190E080E0B6
:1017C0000E94380F9B01AC01C301B2010E948F102F
:1017D00022E538EB4FE253E40E94990F20E030E01D
:1017E00040E857E30E94990F26E636E64BE352E4C1
:1017F0000E948E10609378027093790280937A022F
:1018000090937B0264E671E08DEE92E00E94850485
:10181000609178027091790280917A0290917B02B6
:1018200042E00E94DA046DE771E08DEE92E00E94E2
:10183000850461E671E08DEE92E00E94850440909F
:101840007C0250907D0260907E0270907F024091F9
:1018500078025091790260917A0270917B02CE01F8
:101860000D960E944506B301A201CE0107960E9483
:1018700045061A8219821C821B821E821D8241E04B
:1018800050E060E871E0CE0101960E94240649898B
:101890005A896D857E85CE0101960E94F8058111D9
:1018A00004C0CE0101960E94B60541E050E06BE70E
:1018B00071E0CE0101960E94F805811104C0CE01AD
:1018C00001960E94B6054B855C856F817885CE01B7
:1018D00001960E94F805811104C0CE0101960E9474
:1018E000B60541E050E062E871E0CE0101960E9449
:1018F000F805811104C0CE0101960E94B6051C8A2C
:101900001B8A1E8A1D8A188E1F8A69817A81611539
:10191000710531F04D815E81CE0143960E9424060F
:10192000CE0101960E94C805CE0107960E94C80507
:10193000CE010D960E94C8054F89588D6B897C8910
:1019400086E993E00E94B20161E671E086E993E0E6
:101950000E948504CE0143960E94C80568EE73E09C
:1019600080E090E00E94E402E114F10409F475CEF5
:101970000E941C02882309F470CE0E9400006DCEE4
:101980008EE291E0909397038093960380916F008D
:101990008B7F80936F0080916F008F7D80936F00AD
:1019A0008091710280937202809170028111FCCF4C
:1019B00080916F008D7F80936F000895EF920F9359
:1019C0001F93CF93DF93E80134E047FD34E1042E09
:1019D000000C550B57FF03C0519541955109E32E5B
:1019E000022F242FAE010E94FC0CCE01DF91CF917B
:1019F0001F910F91EF900895A9E0B0E0E2E0FDE0C3
:101A00000C945D106A01F22EB02E102FFBE3AF2E66
:101A1000A01608F41BE31F5F012F27E0AE014F5F04
:101A20005F4F0E945B0EBC018981982F99709130A5
:101A300009F43FC09BE2E1FC04C09E2D9170E0FCE4
:101A40003AC05E2D5071E82FE87083FF46C084E0F5
:101A5000911101C083E0EF2DE81B8F1508F0E0E045
:101A6000D6018E2F20E2552351F1992329F0D6017A
:101A70009C93C60101966C0196012D5F3F4FE2FEDB
:101A800024C08EE4D6018C9391E411969C93119717
:101A900012968C93D9018E2F90E281111BC0E20F18
:101AA000F32FF11D10828EEF9FEF2996ECE00C943E
:101AB00079109DE2C6CF90E2C4CF2D938150811161
:101AC000FCCFCE0ED11CE0E0D0CF8EE6D6018C93B9
:101AD00091E6DBCF9D938150E0CF482F447082FF89
:101AE0003DC084E0911101C083E08F1510F4EF2D0B
:101AF000E81BD6018E2F20E2552309F1992329F006
:101B0000D6019C93C60101966C0196012D5F3F4F53
:101B1000E2FE1BC089E4D6018C938EE411968C936F
:101B2000119786E412968C93D9018E2F90E2882328
:101B300009F4B5CF9D938150FACF2D938150811137
:101B4000FCCFCE0ED11CE0E0D9CF89E6D6018C9334
:101B50008EE611968C93119786E6E4CF9B0177FF72
:101B600002C030E020E0A1E0B0E0911102C0B0E09E
:101B7000A0E0F9013196AE0FBF1F8B2C912CBB203A
:101B800009F461C05401EFEFAE1ABE0AAA0DBB1DE5
:101B9000FA161B0619F014F04F2D4A1B511188C07C
:101BA000E3FC59C07601A42FB0E2A1114FC0C40ECE
:101BB000D11C992309F45BC040E0D6011196F601CF
:101BC00090836D01552309F448C0012F060F9A81B7
:101BD000582F507184FF03C0913309F4015010163F
:101BE0000CF047C0093008F008E0EEE2FE2E5B0181
:101BF000A01AB10885019194819491082F3F320772
:101C000029F4D601FC92F60131966F016217730731
:101C100094F1021713077CF5DB01A21BB30BAA2476
:101C2000A394B12CAC0EBD1EAA0DBB1D11968C91B8
:101C300021503109D601119628153905F4F0F60125
:101C400080836D01DBCFB12CA12CA0CFF701B19324
:101C50007F01A150AACF9111B0CFD601942F50E3AC
:101C600002C05D9391509111FCCFC40ED11C40E095
:101C7000ACCF01E0BACF80E3DBCF6217730731F45A
:101C8000963388F4953311F4552369F0F601808377
:101C9000FD01842F90E2811108C0A40FB11D1C9298
:101CA00090E080E002CF81E3F1CF91938150F3CFB8
:101CB000911183CF8ACF283008F027E03327DA014B
:101CC000990F311D87FD916000966105710539F40A
:101CD00032602E5F3D9330E32A95E1F708959F3FF0
:101CE00030F080387105610509F03C5F3C5F3D9341
:101CF000913008F08068911DDF93CF931F930F936D
:101D0000FF92EF92192F987F9695E92F96959695C9
:101D1000E90FFF27EE53FF4F99273327EE24FF24C7
:101D2000A701E70105900894079428F4360FE71EF1
:101D3000F81E491F511D660F771F881F991F0694B3
:101D4000A1F70590079428F4E70EF81E491F561FC7
:101D5000C11D770F881F991F661F0694A1F7059074
:101D6000079428F4F80E491F561FC71FD11D880F6E
:101D7000991F661F771F0694A1F70590079420F41A
:101D8000490F561FC71FD81F990F661F771F881F3F
:101D90000694A9F784911095177041F0D695C795D0
:101DA00057954795F794E7941A95C1F7E8E6F0E060
:101DB00068941590159135916591959105907FE204
:101DC0007395E118F10A430B560BC90BD009C0F704
:101DD000E10CF11E431F561FC91FD01D7EF4703346
:101DE00011F48A95E6CFE894015030F0080F0AF418
:101DF0000027021708F4202F2395022F7A3328F0AA
:101E000079E37D932A95E9F710C07D932A9589F6A9
:101E1000069497956795379517951794E118F10AE9
:101E2000430B560BC90BD00998F023957E917395FF
:101E30007A3308F070E37C932013B8F77E917061D9
:101E40007D9330F0839571E37D9370E32A95E1F7FC
:101E50001124EF90FF900F911F91CF91DF9199275F
:101E600087FD909508950E94750F08F481E008950C
:101E7000E89409C097FB3EF4909580957095619524
:101E80007F4F8F4F9F4F9923A9F0F92F96E9BB27DA
:101E90009395F695879577956795B795F111F8CF56
:101EA000FAF4BB0F11F460FF1BC06F5F7F4F8F4FC1
:101EB0009F4F16C0882311F096E911C0772321F0B7
:101EC0009EE8872F762F05C0662371F096E8862F4F
:101ED00070E060E02AF09A95660F771F881FDAF7A6
:101EE000880F9695879597F90895990F0008550FD3
:101EF000AA0BE0E8FEEF16161706E807F907C0F090
:101F000012161306E407F50798F0621B730B840B97
:101F1000950B39F40A2661F0232B242B252B21F471
:101F200008950A2609F4A140A6958FEF811D811D11
:101F300008950E94AC0F0C941D100E940F1038F0F1
:101F40000E94161020F0952311F00C9406100C94AA
:101F50000C1011240C9451100E942E1070F3959FB8
:101F6000C1F3950F50E0551F629FF001729FBB2790
:101F7000F00DB11D639FAA27F00DB11DAA1F649F2C
:101F80006627B00DA11D661F829F2227B00DA11DDF
:101F9000621F739FB00DA11D621F839FA00D611D65
:101FA000221F749F3327A00D611D231F849F600D86
:101FB000211D822F762F6A2F11249F5750409AF0AF
:101FC000F1F088234AF0EE0FFF1FBB1F661F771F3B
:101FD000881F91505040A9F79E3F510580F00C9406
:101FE00006100C9451105F3FE4F3983ED4F38695AD
:101FF00077956795B795F795E7959F5FC1F7FE2BA6
:10200000880F911D9695879597F9089597F99F6781
:1020100080E870E060E008959FEF80EC0895002470
:102020000A941616170618060906089500240A943D
:1020300012161306140605060895092E0394000CC3
:1020400011F4882352F0BB0F40F4BF2B11F460FF52
:1020500004C06F5F7F4F8F4F9F4F089557FD90587B
:10206000440F551F59F05F3F71F04795880F97FB5C
:10207000991F61F09F3F79F0879508951216130616
:102080001406551FF2CF4695F1DF08C01616170645
:102090001806991FF1CF869571056105089408957A
:1020A000E894BB2766277727CB0197F908952F92ED
:1020B0003F924F925F926F927F928F929F92AF92D8
:1020C000BF92CF92DF92EF92FF920F931F93CF9325
:1020D000DF93CDB7DEB7CA1BDB0B0FB6F894DEBFBC
:1020E0000FBECDBF09942A88398848885F846E84E2
:1020F0007D848C849B84AA84B984C884DF80EE802C
:10210000FD800C811B81AA81B981CE0FD11D0FB634
:10211000F894DEBF0FBECDBFED0108955058BB2728
:10212000AA270E94A6100C941D100E940F1038F0D0
:102130000E94161020F039F49F3F19F426F40C94F5
:102140000C100EF4E095E7FB0C940610E92F0E94AA
:102150002E1058F3BA17620773078407950720F00B
:1021600079F4A6F50C9450100EF4E0950B2EBA2FCE
:10217000A02D0B01B90190010C01CA01A00111248D
:10218000FF27591B99F0593F50F4503E68F11A1639
:10219000F040A22F232F342F4427585FF3CF4695CA
:1021A00037952795A795F0405395C9F77EF41F16EC
:1021B000BA0B620B730B840BBAF09150A1F0FF0FB6
:1021C000BB1F661F771F881FC2F70EC0BA0F621FA2
:1021D000731F841F48F4879577956795B795F79592
:1021E0009E3F08F0B0CF9395880F08F09927EE0F27
:1021F0009795879508950E940F110C941D100E94C9
:10220000161058F00E940F1040F029F45F3F29F09B
:102210000C94061051110C9451100C940C100E9447
:102220002E1068F39923B1F3552391F3951B550BA9
:10223000BB27AA2762177307840738F09F5F5F4F99
:10224000220F331F441FAA1FA9F335D00E2E3AF0D8
:10225000E0E832D091505040E695001CCAF72BD0F0
:10226000FE2F29D0660F771F881FBB1F2617370741
:102270004807AB07B0E809F0BB0B802DBF01FF2773
:1022800093585F4F3AF09E3F510578F00C9406103A
:102290000C9451105F3FE4F3983ED4F38695779504
:1022A0006795B795F7959F5FC9F7880F911D96952C
:1022B000879597F90895E1E0660F771F881FBB1F88
:1022C000621773078407BA0720F0621B730B840B35
:1022D000BA0BEE1F88F7E09508950E94361088F03B
:1022E0009F5798F0B92F9927B751B0F0E1F0660FDA
:1022F000771F881F991F1AF0BA95C9F714C0B1301B
:1023000091F00E945010B1E008950C945010672F86
:10231000782F8827B85F39F0B93FCCF38695779549
:102320006795B395D9F73EF4909580957095619532
:102330007F4F8F4F9F4F08950E94750F08F48FEFC6
:1023400008950E94750F880B990B0895A1E21A2E2B
:10235000AA1BBB1BFD010DC0AA1FBB1FEE1FFF1F49
:10236000A217B307E407F50720F0A21BB30BE40B99
:10237000F50B661F771F881F991F1A9469F76095E0
:102380007095809590959B01AC01BD01CF0108959A
:10239000EE0FFF1F0590F491E02D09940F931F930A
:1023A000CF93DF938230910510F482E090E0E091CA
:1023B000A403F091A50330E020E0B0E0A0E0309766
:1023C00099F42115310509F44AC0281B390B243032
:1023D0003105D8F58A819B816115710589F1FB0171
:1023E00093838283FE0111C0408151810281138158
:1023F00048175907E0F04817590799F4109761F00A
:1024000012960C93129713961C933296CF01DF917C
:10241000CF911F910F9108950093A4031093A503EA
:10242000F4CF2115310551F04217530738F0A901B7
:10243000DB019A01BD01DF01F801C1CFEF01F9CF46
:102440009093A5038093A403CDCFFE01E20FF31F69
:10245000819391932250310939832883D7CF2091DA
:10246000A2033091A303232B41F420910201309168
:1024700003013093A3032093A20320910001309124
:1024800001012115310541F42DB73EB740910401FA
:1024900050910501241B350BE091A203F091A30399
:1024A000E217F307A0F42E1B3F0B2817390778F02B
:1024B000AC014E5F5F4F2417350748F04E0F5F1F8A
:1024C0005093A3034093A203819391939FCFF0E095
:1024D000E0E09CCFCF93DF930097E9F0FC013297C7
:1024E00013821282A091A403B091A503ED0130E004
:1024F00020E01097A1F420813181820F931F209159
:10250000A2033091A3032817390709F061C0F093A3
:10251000A303E093A203DF91CF910895EA01CE17C0
:10252000DF07E8F54A815B819E0141155105B1F74E
:10253000E901FB83EA8349915991C40FD51FEC1738
:10254000FD0761F4808191810296840F951FE90156
:1025500099838883828193819B838A83F0E0E0E082
:1025600012968D919C9113970097B9F52D913C91FE
:102570001197CD010296820F931F2091A2033091F3
:10258000A3032817390739F6309751F51092A503A0
:102590001092A403B093A303A093A203BCCFD38350
:1025A000C28340815181840F951FC817D90761F4F8
:1025B0004E5F5F4F88819981480F591F5183408337
:1025C0008A819B81938382832115310509F0B0CFE5
:1025D000F093A503E093A4039ECFFD01DC01C0CFDF
:1025E00013821282D7CFB0E0A0E0E9EFF2E10C94C1
:1025F00059108C01009751F4CB010E94CE118C012F
:10260000C801CDB7DEB7E0E10C947510FC01E60F10
:10261000F71F9C0122503109E217F30708F49DC00F
:10262000D901CD91DC911197C617D70798F0C53025
:10263000D10530F3CE0104978617970708F3C61B20
:10264000D70B2297C193D1936D937C93CF010E94B6
:102650006A12D6CF5B01AC1ABD0A4C018C0E9D1ECE
:10266000A091A403B091A503512C412CF12CE12C95
:10267000109731F58091A2039091A30388159905D5
:1026800009F05CC04616570608F058C0809100015A
:1026900090910101009741F48DB79EB740910401DC
:1026A00050910501841B950BE817F90708F055C0F8
:1026B000F093A303E093A203F90171836083A0CF99
:1026C0008D919C91119712966C90129713967C9015
:1026D0001397A815B90559F56C0142E0C40ED11C39
:1026E000CA14DB0420F1AC014A195B09DA01129625
:1026F000159780F06282738251834083D9016D9374
:102700007C93E114F10471F0D7011396FC93EE93DE
:10271000129776CF22968C0F9D1FF90191838083AB
:10272000F301EFCFF093A503E093A40369CF48161C
:10273000590608F42C017D01D3019ACFCB010E94E8
:10274000CE117C01009749F0AE01B8010E94B01390
:10275000C8010E946A12870153CF10E000E050CFF9
:10276000FB01DC0102C001900D9241505040D8F7AE
:102770000895FB01DC0101900D920020E1F708951E
:1027800010E0CAEDD0E004C0FE010E94C8112196FD
:0A279000CB3DD107C9F7F894FFCF45
:10279A000000A6038000000000005202B201DF011F
:1027AA009F021002EE01020200000000D003A30300
:1027BA003D048003A9019003810300000000040482
:1027CA00B2013D04FF031603390326036E616E004E
:1027DA00696E66006F76660052656C61746976652B
:1027EA002048756D6964697479203A002025524839
:1027FA00000D0A0054656D7065726174757265200A
:10280A00696E2043656C73697573203A0020430032
:04281A003C003E0040
:107E0000112484B714BE81FFF0D085E080938100F7
:107E100082E08093C00088E18093C10086E0809377
:107E2000C20080E18093C4008EE0C9D0259A86E02C
:107E300020E33CEF91E0309385002093840096BBD3
:107E4000B09BFECF1D9AA8958150A9F7CC24DD24C4
:107E500088248394B5E0AB2EA1E19A2EF3E0BF2EE7
:107E6000A2D0813461F49FD0082FAFD0023811F036
:107E7000013811F484E001C083E08DD089C08234E0
:107E800011F484E103C0853419F485E0A6D080C0E4
:107E9000853579F488D0E82EFF2485D0082F10E0AE
:107EA000102F00270E291F29000F111F8ED06801E7
:107EB0006FC0863521F484E090D080E0DECF843638
:107EC00009F040C070D06FD0082F6DD080E0C81688
:107ED00080E7D80618F4F601B7BEE895C0E0D1E017
:107EE00062D089930C17E1F7F0E0CF16F0E7DF06D8
:107EF00018F0F601B7BEE89568D007B600FCFDCFD4
:107F0000A601A0E0B1E02C9130E011968C91119780
:107F100090E0982F8827822B932B1296FA010C0160
:107F200087BEE89511244E5F5F4FF1E0A038BF0790
:107F300051F7F601A7BEE89507B600FCFDCF97BE46
:107F4000E89526C08437B1F42ED02DD0F82E2BD052
:107F50003CD0F601EF2C8F010F5F1F4F84911BD097
:107F6000EA94F801C1F70894C11CD11CFA94CF0C13
:107F7000D11C0EC0853739F428D08EE10CD085E9AC
:107F80000AD08FE07ACF813511F488E018D01DD067
:107F900080E101D065CF982F8091C00085FFFCCF94
:107FA0009093C60008958091C00087FFFCCF809118
:107FB000C00084FD01C0A8958091C6000895E0E648
:107FC000F0E098E1908380830895EDDF803219F02E
:107FD00088E0F5DFFFCF84E1DECF1F93182FE3DFCA
:107FE0001150E9F7F2DF1F91089580E0E8DFEE27F6
:047FF000FF270994CA
:027FFE00040479
:0400000300007E007B
:00000001FF
