:100000000C9453000C947B000C947B000C947B00AC
:100010000C947B000C947B000C947B000C947B0074
:100020000C947B000C947B000C947B000C947B0064
:100030000C947B000C947B000C947B000C947B0054
:100040000C946A020C947B000C9438020C941202FB
:100050000C947B000C947B000C947B000C947B0034
:100060000C947B000C947B0000000000250028000D
:100070002B0000000000240027002A0004040404D0
:100080000404040402020202020203030303030342
:10009000010204081020408001020408102001021F
:1000A000040810205D0411241FBECFEFD8E0DEBF8E
:1000B000CDBF21E0ACE1B1E001C01D92A63CB2078A
:1000C000E1F711E0A0E0B1E0E2E5F2E102C0059065
:1000D0000D92AC31B107D9F710E0C3E5D0E004C010
:1000E0002197FE010E942F07C235D107C9F70E9450
:1000F000B4020C9427090C940000AF92BF92CF92E7
:10010000DF92EF92FF920F931F93CF93DF936C01D7
:100110007B018B01040F151FEB015E01AE18BF08B8
:10012000C017D10759F06991D601ED91FC9101906A
:10013000F081E02DC6010995892B79F7C501DF9182
:10014000CF911F910F91FF90EF90DF90CF90BF90D4
:10015000AF900895FC01538D448D252F30E0842FFE
:1001600090E0821B930B541710F0CF9608950197DF
:100170000895FC01918D828D981761F0A28DAE0FCC
:10018000BF2FB11D5D968C91928D9F5F9F73928F53
:1001900090E008958FEF9FEF0895FC01918D828D7F
:1001A000981731F0828DE80FF11D858D90E008954C
:1001B0008FEF9FEF0895FC01918D228D892F90E0A4
:1001C000805C9F4F821B91098F739927089585E268
:1001D00091E00E94DB0021E0892B09F420E0822FCE
:1001E000089580E090E0892B29F00E94E7008111BA
:1001F0000C9400000895FC01A48DA80FB92FB11D27
:10020000A35ABF4F2C91848D90E001968F7399274C
:10021000848FA689B7892C93A089B1898C9183702A
:1002200080648C93938D848D981306C00288F38923
:10023000E02D80818F7D80830895EF92FF920F9350
:100240001F93CF93DF93EC0181E0888F9B8D8C8D82
:1002500098131AC0E889F989808185FF15C09FB776
:10026000F894EE89FF896083E889F9898081837039
:10027000806480839FBF81E090E0DF91CF911F91E8
:100280000F91FF90EF900895F62E0B8D10E00F5F09
:100290001F4F0F731127E02E8C8D8E110CC00FB6DF
:1002A00007FCFACFE889F989808185FFF5CFCE0177
:1002B0000E94FB00F1CFEB8DEC0FFD2FF11DE35AF7
:1002C000FF4FF0829FB7F8940B8FEA89FB898081FA
:1002D0008062CFCFCF93DF93EC01888D8823B9F074
:1002E000AA89BB89E889F9898C9185FD03C0808141
:1002F00086FD0DC00FB607FCF7CF8C9185FFF2CFBE
:10030000808185FFEDCFCE010E94FB00E9CFDF9118
:10031000CF9108953FB7F8948091210190912201E7
:10032000A0912301B091240126B5A89B05C02F3FC1
:1003300019F00196A11DB11D3FBFBA2FA92F982F0B
:100340008827BC01CD01620F711D811D911D42E006
:10035000660F771F881F991F4A95D1F70895CF938D
:10036000DF93EC0188819981009711F00E94D107F9
:10037000198218821D821C821B821A82DF91CF9102
:100380000895FC0180819181009711F00C94D107B0
:1003900008950F931F93CF93DF93EC018881998188
:1003A000009759F02A813B812617370730F081E00A
:1003B000DF91CF911F910F9108958B016F5F7F4F58
:1003C0000E945A08009759F0998388831B830A83F7
:1003D0002C813D81232B59F7FC011082E8CF80E06E
:1003E000E7CFEF92FF920F931F93CF93DF93EC0130
:1003F0007B018A01BA010E94C90181110BC0CE01A3
:100400000E94AF01CE01DF91CF911F910F91FF901C
:10041000EF9008951D830C83B701888199810E9414
:100420002009F0CF1F920F920FB60F9211242F9335
:100430003F934F935F936F937F938F939F93AF936C
:10044000BF93EF93FF9385E291E00E94FB00FF9141
:10045000EF91BF91AF919F918F917F916F915F913C
:100460004F913F912F910F900FBE0F901F901895B5
:100470001F920F920FB60F9211242F938F939F9379
:10048000EF93FF93E0913501F09136018081E09187
:100490003B01F0913C0182FD1BC0908180913E01A7
:1004A0008F5F8F7320913F01821741F0E0913E01F1
:1004B000F0E0EB5DFE4F958F80933E01FF91EF9151
:1004C0009F918F912F910F900FBE0F901F901895B5
:1004D0008081F4CF1F920F920FB60F9211242F93A9
:1004E0003F938F939F93AF93BF9380911D01909102
:1004F0001E01A0911F01B091200130911C0123E049
:10050000230F2D3758F50196A11DB11D20931C0115
:1005100080931D0190931E01A0931F01B0932001B1
:100520008091210190912201A0912301B091240199
:100530000196A11DB11D8093210190932201A093EA
:100540002301B0932401BF91AF919F918F913F916F
:100550002F910F900FBE0F901F90189526E8230F34
:100560000296A11DB11DD2CFCF93DF93CDB7DEB7D9
:100570006E970FB6F894DEBF0FBECDBF789484B5EA
:10058000826084BD84B5816084BD85B5826085BD8F
:1005900085B5816085BD80916E00816080936E001D
:1005A000109281008091810082608093810080910F
:1005B00081008160809381008091800081608093C0
:1005C00080008091B10084608093B1008091B00080
:1005D00081608093B00080917A00846080937A007B
:1005E00080917A00826080937A0080917A008160A5
:1005F00080937A0080917A00806880937A001092CC
:10060000C100EEE9F0E02491EAE8F0E0849188236B
:10061000C9F090E0880F991FFC01EE58FF4F4591FB
:100620005491FC01E859FF4FA591B4919FB7F894FC
:10063000FA0180812095822380838C91E22FE82328
:10064000EC939FBFE0913501F091360182E0808309
:10065000E0913101F09132011082E0913301F0918B
:1006600034018FEC808310923D01E0913901F091CB
:100670003A0186E08083E0913701F0913801808172
:1006800080618083E0913701F0913801808188603A
:100690008083E0913701F091380180818068808308
:1006A000E0913701F091380180818F7D808390E463
:1006B000D92E8E010F5F1F4F20E0E22E20E0F22E98
:1006C000D0927C0080917A00806480937A0080913F
:1006D0007A0086FDFCCF8091780060917900762FBA
:1006E000682F072E000C880B990B0E94C10420E094
:1006F00030E040EA5BE30E9420059B01AC0160E032
:1007000070E08AE793E40E94820620E030E048E44B
:1007100052E40E9415064B015C0120E030E0A90183
:100720000E942A0720E030E040E05FE387FDAFC091
:10073000C501B4010E9416060E94F406CB011C8A72
:100740001B8A1E8A1D8A188E1F8A4AE0B8010E94E1
:100750008A04F80101900020E9F73197AF01401BAE
:10076000510BB801CE0143960E94F1011A82198201
:100770001C821B821E821D8241E050E068E171E014
:10078000C8010E94F1018B889C888114910409F4AE
:1007900083C0AF88B88CA114B104B1F08D819E8163
:1007A000A80EB91EB501C8010E94C901882309F429
:1007B00073C029813A818D819E81B401820F931F7C
:1007C0000E942009BE82AD82AD80BE80FFEFAF1ACD
:1007D000BF0AB501C8010E94C901811161C0C801E9
:1007E0000E94AF011A8E198E1C8E1B8E1E8E1D8EBE
:1007F00069817A816115710531F04D815E81CE018B
:1008000049960E94F101C8010E94C101CE014396A0
:100810000E94C1014D8D5E8D698D7A8D85E291E0DA
:100820000E947D000E948A012B013C0188EB882EEA
:100830008BE0982EA12CB12C0E948A0164197509B5
:1008400086099709683E734081059105A8F321E068
:10085000821A9108A108B10888EE480E83E0581E5C
:10086000611C711C81149104A104B10429F7CE010B
:1008700049960E94C101E114F10409F421CF0E94BC
:10088000E700882309F41CCF0E94000019CFC5019E
:10089000B4010E94150650CFC8010E94AF0194CF49
:1008A00029813A818D819E816AE171E0820F931FD7
:1008B0000E942009BE82AD8295CFE5E2F1E013826D
:1008C000128288EE93E0A0E0B0E084839583A68353
:1008D000B7838AE091E09183808385EC90E09587EF
:1008E000848784EC90E09787868780EC90E0918BFA
:1008F000808B81EC90E0938B828B82EC90E0958BE7
:10090000848B86EC90E0978B868B118E128E138EE3
:10091000148E0895BB274A3031F4992322F4BDE2A6
:10092000909581959F4F0C949604BB27FB0155270A
:10093000AA27880F991FAA1FA41710F0A41B83953C
:100940005051B9F7A05DAA3308F0A95DA1930097B3
:1009500079F7B111B1931192CB010C94AF04DC0182
:10096000FC01672F71917723E1F7329704C07C91E6
:100970006D9370836291AE17BF07C8F30895E89432
:1009800009C097FB3EF490958095709561957F4FD7
:100990008F4F9F4F9923A9F0F92F96E9BB27939585
:1009A000F695879577956795B795F111F8CFFAF495
:1009B000BB0F11F460FF1BC06F5F7F4F8F4F9F4FC6
:1009C00016C0882311F096E911C0772321F09EE824
:1009D000872F762F05C0662371F096E8862F70E08A
:1009E00060E02AF09A95660F771F881FDAF7880F64
:1009F0009695879597F90895990F0008550FAA0BBA
:100A0000E0E8FEEF16161706E807F907C0F0121621
:100A10001306E407F50798F0621B730B840B950B24
:100A200039F40A2661F0232B242B252B21F4089579
:100A30000A2609F4A140A6958FEF811D811D089516
:100A40000E9433050C94A4050E94960538F00E947C
:100A50009D0520F0952311F00C948D050C949305C1
:100A600011240C94D8050E94B50570F3959FC1F32D
:100A7000950F50E0551F629FF001729FBB27F00D4C
:100A8000B11D639FAA27F00DB11DAA1F649F6627A1
:100A9000B00DA11D661F829F2227B00DA11D621FF0
:100AA000739FB00DA11D621F839FA00D611D221FAA
:100AB000749F3327A00D611D231F849F600D211D8E
:100AC000822F762F6A2F11249F5750409AF0F1F011
:100AD00088234AF0EE0FFF1FBB1F661F771F881F7A
:100AE00091505040A9F79E3F510580F00C948D0520
:100AF0000C94D8055F3FE4F3983ED4F38695779540
:100B00006795B795F795E7959F5FC1F7FE2B880F1F
:100B1000911D9695879597F9089597F99F6780E8B5
:100B200070E060E008959FEF80EC089500240A943F
:100B30001616170618060906089500240A941216B8
:100B40001306140605060895092E0394000C11F4EB
:100B5000882352F0BB0F40F4BF2B11F460FF04C098
:100B60006F5F7F4F8F4F9F4F089557FD9058440FF1
:100B7000551F59F05F3F71F04795880F97FB991FFC
:100B800061F09F3F79F087950895121613061406B9
:100B9000551FF2CF4695F1DF08C016161706180646
:100BA000991FF1CF86957105610508940895E89421
:100BB000BB2766277727CB0197F908952F923F929D
:100BC0004F925F926F927F928F929F92AF92BF925D
:100BD000CF92DF92EF92FF920F931F93CF93DF9309
:100BE000CDB7DEB7CA1BDB0B0FB6F894DEBF0FBE66
:100BF000CDBF09942A88398848885F846E847D84B3
:100C00008C849B84AA84B984C884DF80EE80FD80B4
:100C10000C811B81AA81B981CE0FD11D0FB6F8942A
:100C2000DEBF0FBECDBFED0108955058BB27AA27E8
:100C30000E942D060C94A4050E94960538F00E948F
:100C40009D0520F039F49F3F19F426F40C94930588
:100C50000EF4E095E7FB0C948D05E92F0E94B50595
:100C600058F3BA17620773078407950720F079F4E1
:100C7000A6F50C94D7050EF4E0950B2EBA2FA02DF7
:100C80000B01B90190010C01CA01A0011124FF2739
:100C9000591B99F0593F50F4503E68F11A16F04034
:100CA000A22F232F342F4427585FF3CF4695379533
:100CB0002795A795F0405395C9F77EF41F16BA0BF8
:100CC000620B730B840BBAF09150A1F0FF0FBB1FA6
:100CD000661F771F881FC2F70EC0BA0F621F731FEF
:100CE000841F48F4879577956795B795F7959E3F4C
:100CF00008F0B0CF9395880F08F09927EE0F9795DD
:100D0000879508950E9496060C94A4050E949D055F
:100D100058F00E94960540F029F45F3F29F00C94AA
:100D20008D0551110C94D8050C9493050E94B505BE
:100D300068F39923B1F3552391F3951B550BBB270A
:100D4000AA2762177307840738F09F5F5F4F220F4F
:100D5000331F441FAA1FA9F335D00E2E3AF0E0E846
:100D600032D091505040E695001CCAF72BD0FE2F90
:100D700029D0660F771F881FBB1F26173707480724
:100D8000AB07B0E809F0BB0B802DBF01FF279358DC
:100D90005F4F3AF09E3F510578F00C948D050C940E
:100DA000D8055F3FE4F3983ED4F386957795679531
:100DB000B795F7959F5FC9F7880F911D9695879511
:100DC00097F90895E1E0660F771F881FBB1F621730
:100DD00073078407BA0720F0621B730B840BBA0BEE
:100DE000EE1F88F7E09508950E94FB066894B11104
:100DF0000C94D80508950E94BD0588F09F5798F07F
:100E0000B92F9927B751B0F0E1F0660F771F881F0F
:100E1000991F1AF0BA95C9F714C0B13091F00E9429
:100E2000D705B1E008950C94D705672F782F882750
:100E3000B85F39F0B93FCCF3869577956795B39550
:100E4000D9F73EF490958095709561957F4F8F4FBF
:100E50009F4F08950E94FC0408F48FEF0895EE0F51
:100E6000FF1F0590F491E02D09940F931F93CF93EA
:100E7000DF938230910510F482E090E0E091C401AC
:100E8000F091C50130E020E0B0E0A0E0309799F4A7
:100E90002115310509F44AC0281B390B24303105CE
:100EA000D8F58A819B816115710589F1FB019383D6
:100EB0008283FE0111C04081518102811381481754
:100EC0005907E0F04817590799F4109761F0129606
:100ED0000C93129713961C933296CF01DF91CF910A
:100EE0001F910F9108950093C4011093C501F4CF91
:100EF0002115310551F04217530738F0A901DB01E4
:100F00009A01BD01DF01F801C1CFEF01F9CF909344
:100F1000C5018093C401CDCFFE01E20FF31F819381
:100F200091932250310939832883D7CF2091C20170
:100F30003091C301232B41F4209102013091030130
:100F40003093C3012093C20120910001309101012F
:100F50002115310541F42DB73EB740910401509160
:100F60000501241B350BE091C201F091C301E2178A
:100F7000F307A0F42E1B3F0B2817390778F0AC01BC
:100F80004E5F5F4F2417350748F04E0F5F1F509399
:100F9000C3014093C201819391939FCFF0E0E0E0C1
:100FA0009CCFCF93DF930097E9F0FC013297138237
:100FB0001282A091C401B091C501ED0130E020E0A2
:100FC0001097A1F420813181820F931F2091C201DB
:100FD0003091C3012817390709F061C0F093C301AC
:100FE000E093C201DF91CF910895EA01CE17DF07A8
:100FF000E8F54A815B819E0141155105B1F7E90190
:10100000FB83EA8349915991C40FD51FEC17FD0763
:1010100061F4808191810296840F951FE901998383
:101020008883828193819B838A83F0E0E0E012963B
:101030008D919C9113970097B9F52D913C91119743
:10104000CD010296820F931F2091C2013091C301FE
:101050002817390739F6309751F51092C5011092CB
:10106000C401B093C301A093C201BCCFD383C28398
:1010700040815181840F951FC817D90761F44E5FD5
:101080005F4F88819981480F591F518340838A811E
:101090009B81938382832115310509F0B0CFF093B2
:1010A000C501E093C4019ECFFD01DC01C0CF1382D6
:1010B0001282D7CFB0E0A0E0E0E6F8E00C94E005C3
:1010C0008C01009751F4CB010E9435078C01C801B7
:1010D000CDB7DEB7E0E10C94FC05FC01E60FF71F8D
:1010E0009C0122503109E217F30708F49DC0D90191
:1010F000CD91DC911197C617D70798F0C530D1056F
:1011000030F3CE0104978617970708F3C61BD70B59
:101110002297C193D1936D937C93CF010E94D10705
:10112000D6CF5B01AC1ABD0A4C018C0E9D1EA0915E
:10113000C401B091C501512C412CF12CE12C109728
:1011400031F58091C2019091C3018815990509F08C
:101150005CC04616570608F058C080910001909177
:101160000101009741F48DB79EB740910401509161
:101170000501841B950BE817F90708F055C0F0939B
:10118000C301E093C201F90171836083A0CF8D9107
:101190009C91119712966C90129713967C901397CE
:1011A000A815B90559F56C0142E0C40ED11CCA144A
:1011B000DB0420F1AC014A195B09DA01129615979C
:1011C00080F06282738251834083D9016D937C9356
:1011D000E114F10471F0D7011396FC93EE9312978A
:1011E00076CF22968C0F9D1FF90191838083F301A6
:1011F000EFCFF093C501E093C40169CF48165906BB
:1012000008F42C017D01D3019ACFCB010E94350750
:101210007C01009749F0AE01B8010E941709C8018E
:101220000E94D107870153CF10E000E050CFFB01AF
:10123000DC0102C001900D9241505040D8F7089552
:10124000FB01DC0101900D920020E1F70895F89474
:02125000FFCFCE
:101252000000C6018000000000001D017D00AA0000
:0C1262006A01DB00B900CD003C003E003A
:107E0000112484B714BE81FFF0D085E080938100F7
:107E100082E08093C00088E18093C10086E0809377
:107E2000C20080E18093C4008EE0C9D0259A86E02C
:107E300020E33CEF91E0309385002093840096BBD3
:107E4000B09BFECF1D9AA8958150A9F7CC24DD24C4
:107E500088248394B5E0AB2EA1E19A2EF3E0BF2EE7
:107E6000A2D0813461F49FD0082FAFD0023811F036
:107E7000013811F484E001C083E08DD089C08234E0
:107E800011F484E103C0853419F485E0A6D080C0E4
:107E9000853579F488D0E82EFF2485D0082F10E0AE
:107EA000102F00270E291F29000F111F8ED06801E7
:107EB0006FC0863521F484E090D080E0DECF843638
:107EC00009F040C070D06FD0082F6DD080E0C81688
:107ED00080E7D80618F4F601B7BEE895C0E0D1E017
:107EE00062D089930C17E1F7F0E0CF16F0E7DF06D8
:107EF00018F0F601B7BEE89568D007B600FCFDCFD4
:107F0000A601A0E0B1E02C9130E011968C91119780
:107F100090E0982F8827822B932B1296FA010C0160
:107F200087BEE89511244E5F5F4FF1E0A038BF0790
:107F300051F7F601A7BEE89507B600FCFDCF97BE46
:107F4000E89526C08437B1F42ED02DD0F82E2BD052
:107F50003CD0F601EF2C8F010F5F1F4F84911BD097
:107F6000EA94F801C1F70894C11CD11CFA94CF0C13
:107F7000D11C0EC0853739F428D08EE10CD085E9AC
:107F80000AD08FE07ACF813511F488E018D01DD067
:107F900080E101D065CF982F8091C00085FFFCCF94
:107FA0009093C60008958091C00087FFFCCF809118
:107FB000C00084FD01C0A8958091C6000895E0E648
:107FC000F0E098E1908380830895EDDF803219F02E
:107FD00088E0F5DFFFCF84E1DECF1F93182FE3DFCA
:107FE0001150E9F7F2DF1F91089580E0E8DFEE27F6
:047FF000FF270994CA
:027FFE00040479
:0400000300007E007B
:00000001FF
