:100000000C94D0000C94F8000C94F8000C94F800B8
:100010000C94F8000C94F8000C94F8000C94F80080
:100020000C94F8000C94F8000C94F8000C94F80070
:100030000C94F8000C94F8000C94F8000C94F80060
:100040000C941D030C94F8000C94EB020C94C50264
:100050000C94F8000C94F8000C94F8000C94F80040
:100060000C94F8000C94F80000407A10F35A00A0A9
:10007000724E18090010A5D4E80000E87648170071
:1000800000E40B54020000CA9A3B000000E1F505B1
:10009000000080969800000040420F000000A086FB
:1000A00001000000102700000000E803000000002D
:1000B0006400000000000A000000000001000000D1
:1000C00000002C76D888DC674F0823DFC1DFAE59EB
:1000D000E1B1B796E5E3E453C63AE651997696E87E
:1000E000E6C28426EB898C9B62ED407C6FFCEFBC02
:1000F0009C9F40F2BAA56FA5F490055A2AF75C932D
:100100006B6CF9676DC11BFCE0E40D47FEF520E662
:10011000B500D0ED902E0300943577050080841E45
:10012000080000204E0A000000C80C333333330FA0
:10013000986E12831141EF8D2114893BE65516CF3D
:10014000FEE6DB18D1844B381BF77C1D901DA4BB49
:10015000E424203284725E228100C9F124ECA1E5FE
:100160003D2700000000250028002B0000000000B3
:10017000240027002A0004040404040404040202E6
:100180000202020203030303030301020408102016
:100190004080010204081020010204081020140508
:1001A00011241FBECFEFD8E0DEBFCDBF21E0ACE110
:1001B000B1E001C01D92AE3CB207E1F711E0A0E052
:1001C000B1E0E4E9F7E102C005900D92AC31B1076E
:1001D000D9F710E0C0EDD0E004C02197FE010E94E5
:1001E000D009CF3CD107C9F70E9467030C94C80B14
:1001F0000C940000AF92BF92CF92DF92EF92FF92E9
:100200000F931F93CF93DF936C017B018B01040F3E
:10021000151FEB015E01AE18BF08C017D10759F0DA
:100220006991D601ED91FC910190F081E02DC6011C
:100230000995892B79F7C501DF91CF911F910F9116
:10024000FF90EF90DF90CF90BF90AF900895FC01AA
:10025000538D448D252F30E0842F90E0821B930B2B
:10026000541710F0CF96089501970895FC01918DD1
:10027000828D981761F0A28DAE0FBF2FB11D5D96D4
:100280008C91928D9F5F9F73928F90E008958FEF76
:100290009FEF0895FC01918D828D981731F0828D2A
:1002A000E80FF11D858D90E008958FEF9FEF089581
:1002B000FC01918D228D892F90E0805C9F4F821BE5
:1002C00091098F739927089585E291E00E94580162
:1002D00021E0892B09F420E0822F089580E090E04E
:1002E000892B29F00E94640181110C94000008956B
:1002F000FC01A48DA80FB92FB11DA35ABF4F2C919B
:10030000848D90E001968F739927848FA689B78991
:100310002C93A089B1898C91837080648C93938D88
:10032000848D981306C00288F389E02D80818F7D2B
:1003300080830895EF92FF920F931F93CF93DF93E3
:10034000EC0181E0888F9B8D8C8D98131AC0E88911
:10035000F989808185FF15C09FB7F894EE89FF89E0
:100360006083E889F98980818370806480839FBF7E
:1003700081E090E0DF91CF911F910F91FF90EF907E
:100380000895F62E0B8D10E00F5F1F4F0F7311278E
:10039000E02E8C8D8E110CC00FB607FCFACFE889C9
:1003A000F989808185FFF5CFCE010E947801F1CFD8
:1003B000EB8DEC0FFD2FF11DE35AFF4FF0829FB73D
:1003C000F8940B8FEA89FB8980818062CFCFCF932D
:1003D000DF93EC01888D8823B9F0AA89BB89E8896D
:1003E000F9898C9185FD03C0808186FD0DC00FB613
:1003F00007FCF7CF8C9185FFF2CF808185FFEDCF91
:10040000CE010E947801E9CFDF91CF9108953FB7E7
:10041000F8948091210190912201A0912301B09143
:10042000240126B5A89B05C02F3F19F00196A11DF8
:10043000B11D3FBFBA2FA92F982F8827BC01CD012E
:10044000620F711D811D911D42E0660F771F881F8D
:10045000991F4A95D1F708958F929F92AF92BF92BC
:10046000CF92DF92EF92FF920E9407024B015C0154
:100470008CEDC82E85E0D82EE12CF12C0E940702CD
:10048000681979098A099B09683E734081059105BD
:10049000A8F321E0C21AD108E108F10888EE880E1D
:1004A00083E0981EA11CB11CC114D104E104F10425
:1004B00029F7FF90EF90DF90CF90BF90AF909F9083
:1004C0008F900895CF93DF93EC01888199810097F5
:1004D00011F00E94720A198218821D821C821B82EE
:1004E0001A82DF91CF910895FC018081918100975C
:1004F00011F00C94720A08950F931F93CF93DF931A
:10050000EC0188819981009759F02A813B81261757
:10051000370730F081E0DF91CF911F910F9108955F
:100520008B016F5F7F4F0E94FB0A009759F0998300
:1005300088831B830A832C813D81232B59F7FC017F
:100540001082E8CF80E0E7CFEF92FF920F931F93E6
:10055000CF93DF93EC017B018A01BA010E947C02F8
:1005600081110BC0CE010E946202CE01DF91CF91BA
:100570001F910F91FF90EF9008951D830C83B70199
:10058000888199810E94C10BF0CF1F920F920FB604
:100590000F9211242F933F934F935F936F937F9309
:1005A0008F939F93AF93BF93EF93FF9385E291E077
:1005B0000E947801FF91EF91BF91AF919F918F9130
:1005C0007F916F915F914F913F912F910F900FBE4F
:1005D0000F901F9018951F920F920FB60F92112433
:1005E0002F938F939F93EF93FF93E0913501F091B9
:1005F00036018081E0913B01F0913C0182FD1BC0FE
:10060000908180913E018F5F8F7320913F0182170F
:1006100041F0E0913E01F0E0EB5DFE4F958F80935D
:100620003E01FF91EF919F918F912F910F900FBEFF
:100630000F901F9018958081F4CF1F920F920FB6E4
:100640000F9211242F933F938F939F93AF93BF9358
:1006500080911D0190911E01A0911F01B091200178
:1006600030911C0123E0230F2D3758F50196A11D71
:10067000B11D20931C0180931D0190931E01A09336
:100680001F01B09320018091210190912201A0913E
:100690002301B09124010196A11DB11D8093210178
:1006A00090932201A0932301B0932401BF91AF91B5
:1006B0009F918F913F912F910F900FBE0F901F90A0
:1006C000189526E8230F0296A11DB11DD2CFCF9316
:1006D000DF93CDB7DEB7AD970FB6F894DEBF0FBE90
:1006E000CDBF789484B5826084BD84B5816084BDBB
:1006F00085B5826085BD85B5816085BD80916E00C0
:10070000816080936E0010928100809181008260F0
:10071000809381008091810081608093810080912D
:1007200080008160809380008091B100846080931C
:10073000B1008091B00081608093B00080917A0018
:10074000846080937A0080917A00826080937A003E
:1007500080917A00816080937A0080917A0080682D
:1007600080937A001092C100E8E9F1E02491E4E876
:10077000F1E084918823C9F090E0880F991FFC0173
:10078000E459FE4F45915491FC01EE59FE4FA5915D
:10079000B4919FB7F894FA018081209582238083D9
:1007A0008C91E22FE823EC939FBFE0913501F0910B
:1007B000360182E08083E0913101F09132011082B4
:1007C000E0913301F09134018FEC808310923D0170
:1007D000E0913901F0913A0186E08083E0913701A0
:1007E000F0913801808180618083E0913701F09140
:1007F0003801808188608083E0913701F091380171
:10080000808180688083E0913701F0913801808198
:100810008F7D80831092C2011092C3011092C40197
:100820001092C50180E4D82E90E0E92E90E0F92ED8
:100830000E942C02D0927C0080917A008064809388
:100840007A0080917A0086FDFCCF809178006091DB
:100850007900762F682F072E000C880B990B0E94C9
:100860009D0720E030E040EA5BE30E94FC079B012B
:10087000AC0160E070E08AE793E40E945E0920E04A
:1008800030E048E452E40E94F1084B015C018092A0
:10089000C6019092C701A092C801B092C9012091EF
:1008A000C2013091C3014091C4015091C5010E9421
:1008B0009607882309F493C01BA21AA21DA21CA2AA
:1008C0001FA21EA28E010F5F1F4F22E044E0C50150
:1008D000B4010E944105009709F48FC0FC0101900A
:1008E0000020E9F73197AF01481B590BBC01CE013D
:1008F00082960E94A4021A8219821C821B821E8286
:100900001D8241E050E068E171E0CE0101960E9455
:10091000A402AAA0BBA0A114B10409F473C00EA143
:100920001FA101151105B9F08D819E81080F191FB6
:10093000B801CE0101960E947C02882309F462C0AE
:1009400029813A818D819E81B501820F931F0E947A
:10095000C10B1E830D830D811E810F5F1F4FB801D8
:10096000CE0101960E947C02811151C0CE010196F8
:100970000E94620219A618A61BA61AA61DA61CA6EE
:1009800069817A816115710531F04D815E81CE01F9
:1009900088960E94A402CE0101960E947402CE01A4
:1009A00082960E9474024CA55DA568A579A585E292
:1009B00091E00E94FA008091C6019091C701A09138
:1009C000C801B091C9018093C2019093C301A09363
:1009D000C401B093C501CE0188960E9474020E94A2
:1009E0002C02E114F10409F423CF0E94640188234E
:1009F00009F41ECF0E9400001BCFCE0182960E94F8
:100A0000620279CFCE0101960E946202A4CF2981B1
:100A10003A818D819E816AE171E0820F931F0E946D
:100A2000C10B1E830D83A6CFE5E2F1E01382128293
:100A300088EE93E0A0E0B0E084839583A683B7833B
:100A40008AE091E09183808385EC90E095878487AC
:100A500084EC90E09787868780EC90E0918B808B88
:100A600081EC90E0938B828B82EC90E0958B848B71
:100A700086EC90E0978B868B118E128E138E148EDF
:100A80000895EF920F931F93CF93DF93E80134E023
:100A900047FD34E1042E000C550B57FF03C0519560
:100AA00041955109E32E022F242FAE010E945F05CC
:100AB000CE01DF91CF911F910F91EF900895A9E0A2
:100AC000B0E0E5E6F5E00C94C0086A01F22EB02E25
:100AD000102FFBE3AF2EA01608F41BE31F5F012FBE
:100AE00027E0AE014F5F5F4F0E94BE06BC018981C7
:100AF000982F9970913009F43FC09BE2E1FC04C04B
:100B00009E2D9170E0FC3AC05E2D5071E82FE87088
:100B100083FF46C084E0911101C083E0EF2DE81B04
:100B20008F1508F0E0E0D6018E2F20E2552351F119
:100B3000992329F0D6019C93C60101966C01960178
:100B40002D5F3F4FE2FE24C08EE4D6018C9391E4EA
:100B500011969C93119712968C93D9018E2F90E247
:100B600081111BC0E20FF32FF11D10828EEF9FEF5A
:100B70002996ECE00C94DC089DE2C6CF90E2C4CF4D
:100B80002D9381508111FCCFCE0ED11CE0E0D0CF4F
:100B90008EE6D6018C9391E6DBCF9D938150E0CF1A
:100BA000482F447082FF3DC084E0911101C083E072
:100BB0008F1510F4EF2DE81BD6018E2F20E2552360
:100BC00009F1992329F0D6019C93C60101966C0185
:100BD00096012D5F3F4FE2FE1BC089E4D6018C9346
:100BE0008EE411968C93119786E412968C93D9011A
:100BF0008E2F90E2882309F4B5CF9D938150FACFD0
:100C00002D9381508111FCCFCE0ED11CE0E0D9CFC5
:100C100089E6D6018C938EE611968C93119786E621
:100C2000E4CF9B0177FF02C030E020E0A1E0B0E01C
:100C3000911102C0B0E0A0E0F9013196AE0FBF1FE4
:100C40008B2C912CBB2009F461C05401EFEFAE1A3C
:100C5000BE0AAA0DBB1DFA161B0619F014F04F2D83
:100C60004A1B511188C0E3FC59C07601A42FB0E2A1
:100C7000A1114FC0C40ED11C992309F45BC040E000
:100C8000D6011196F60190836D01552309F448C0F1
:100C9000012F060F9A81582F507184FF03C09133A2
:100CA00009F4015010160CF047C0093008F008E0B4
:100CB000EEE2FE2E5B01A01AB108850191948194A9
:100CC00091082F3F320729F4D601FC92F6013196A4
:100CD0006F016217730794F1021713077CF5DB01AC
:100CE000A21BB30BAA24A394B12CAC0EBD1EAA0D5B
:100CF000BB1D11968C9121503109D60111962815F2
:100D00003905F4F0F60180836D01DBCFB12CA12C05
:100D1000A0CFF701B1937F01A150AACF9111B0CF1D
:100D2000D601942F50E302C05D9391509111FCCFF6
:100D3000C40ED11C40E0ACCF01E0BACF80E3DBCFE2
:100D40006217730731F4963388F4953311F4552301
:100D500069F0F6018083FD01842F90E2811108C0C3
:100D6000A40FB11D1C9290E080E002CF81E3F1CF8F
:100D700091938150F3CF911183CF8ACF283008F01F
:100D800027E03327DA01990F311D87FD9160009626
:100D90006105710539F432602E5F3D9330E32A9589
:100DA000E1F708959F3F30F080387105610509F043
:100DB0003C5F3C5F3D93913008F08068911DDF936C
:100DC000CF931F930F93FF92EF92192F987F9695D1
:100DD000E92F96959695E90FFF27EE53FF4F992738
:100DE0003327EE24FF24A701E70105900894079418
:100DF00028F4360FE71EF81E491F511D660F771F96
:100E0000881F991F0694A1F70590079428F4E70E10
:100E1000F81E491F561FC11D770F881F991F661F97
:100E20000694A1F70590079428F4F80E491F561F61
:100E3000C71FD11D880F991F661F771F0694A1F742
:100E40000590079420F4490F561FC71FD81F990F0C
:100E5000661F771F881F0694A9F784911095177055
:100E600041F0D695C79557954795F794E7941A950D
:100E7000C1F7E8E6F0E06894159015913591659119
:100E8000959105907FE27395E118F10A430B560B9B
:100E9000C90BD009C0F7E10CF11E431F561FC91F33
:100EA000D01D7EF4703311F48A95E6CFE89401509A
:100EB00030F0080F0AF40027021708F4202F2395BA
:100EC000022F7A3328F079E37D932A95E9F710C051
:100ED0007D932A9589F6069497956795379517958A
:100EE0001794E118F10A430B560BC90BD00998F07F
:100EF00023957E9173957A3308F070E37C932013E9
:100F0000B8F77E9170617D9330F0839571E37D93A6
:100F100070E32A95E1F71124EF90FF900F911F9154
:100F2000CF91DF91992787FD909508950E94D8076A
:100F300008F481E00895E89409C097FB3EF4909589
:100F40008095709561957F4F8F4F9F4F9923A9F0A2
:100F5000F92F96E9BB279395F69587957795679531
:100F6000B795F111F8CFFAF4BB0F11F460FF1BC075
:100F70006F5F7F4F8F4F9F4F16C0882311F096E908
:100F800011C0772321F09EE8872F762F05C06623B6
:100F900071F096E8862F70E060E02AF09A95660F6F
:100FA000771F881FDAF7880F9695879597F9089528
:100FB000990F0008550FAA0BE0E8FEEF161617066A
:100FC000E807F907C0F012161306E407F50798F0D2
:100FD000621B730B840B950B39F40A2661F0232BEB
:100FE000242B252B21F408950A2609F4A140A69567
:100FF0008FEF811D811D08950E940F080C948008B9
:101000000E94720838F00E94790820F0952311F0B0
:101010000C9469080C946F0811240C94B4080E9475
:10102000910870F3959FC1F3950F50E0551F629F93
:10103000F001729FBB27F00DB11D639FAA27F00D31
:10104000B11DAA1F649F6627B00DA11D661F829F58
:101050002227B00DA11D621F739FB00DA11D621F3D
:10106000839FA00D611D221F749F3327A00D611D5A
:10107000231F849F600D211D822F762F6A2F11243C
:101080009F5750409AF0F1F088234AF0EE0FFF1F6F
:10109000BB1F661F771F881F91505040A9F79E3FC6
:1010A000510580F00C9469080C94B4085F3FE4F398
:1010B000983ED4F3869577956795B795F795E7951C
:1010C0009F5FC1F7FE2B880F911D9695879597F925
:1010D000089597F99F6780E870E060E008959FEFBA
:1010E00080EC089500240A941616170618060906BF
:1010F000089500240A94121613061406050608958E
:10110000092E0394000C11F4882352F0BB0F40F415
:10111000BF2B11F460FF04C06F5F7F4F8F4F9F4F55
:10112000089557FD9058440F551F59F05F3F71F0D7
:101130004795880F97FB991F61F09F3F79F087953E
:101140000895121613061406551FF2CF4695F1DFC7
:1011500008C0161617061806991FF1CF8695710557
:10116000610508940895E894BB2766277727CB018B
:1011700097F908952F923F924F925F926F927F92CC
:101180008F929F92AF92BF92CF92DF92EF92FF9297
:101190000F931F93CF93DF93CDB7DEB7CA1BDB0B43
:1011A0000FB6F894DEBF0FBECDBF09942A883988E8
:1011B00048885F846E847D848C849B84AA84B984EF
:1011C000C884DF80EE80FD800C811B81AA81B981FB
:1011D000CE0FD11D0FB6F894DEBF0FBECDBFED010F
:1011E00008955058BB27AA270E9409090C9480082B
:1011F0000E94720838F00E94790820F039F49F3F6D
:1012000019F426F40C946F080EF4E095E7FB0C94A7
:101210006908E92F0E94910858F3BA17620773070B
:101220008407950720F079F4A6F50C94B3080EF422
:10123000E0950B2EBA2FA02D0B01B90190010C01E6
:10124000CA01A0011124FF27591B99F0593F50F4FE
:10125000503E68F11A16F040A22F232F342F442756
:10126000585FF3CF469537952795A795F04053954E
:10127000C9F77EF41F16BA0B620B730B840BBAF01E
:101280009150A1F0FF0FBB1F661F771F881FC2F789
:101290000EC0BA0F621F731F841F48F4879577959D
:1012A0006795B795F7959E3F08F0B0CF9395880F57
:1012B00008F09927EE0F9795879508950E94720977
:1012C0000C9480080E94790858F00E94720840F03F
:1012D00029F45F3F29F00C94690851110C94B4086B
:1012E0000C946F080E94910868F39923B1F3552379
:1012F00091F3951B550BBB27AA2762177307840729
:1013000038F09F5F5F4F220F331F441FAA1FA9F3BE
:1013100035D00E2E3AF0E0E832D091505040E695AC
:10132000001CCAF72BD0FE2F29D0660F771F881F0D
:10133000BB1F261737074807AB07B0E809F0BB0B00
:10134000802DBF01FF2793585F4F3AF09E3F510514
:1013500078F00C9469080C94B4085F3FE4F3983E6D
:10136000D4F3869577956795B795F7959F5FC9F7FD
:10137000880F911D9695879597F90895E1E0660F7E
:10138000771F881FBB1F621773078407BA0720F0F7
:10139000621B730B840BBA0BEE1F88F7E095089560
:1013A000EE0FFF1F0590F491E02D09940F931F930A
:1013B000CF93DF938230910510F482E090E0E091CA
:1013C000CC01F091CD0130E020E0B0E0A0E030971A
:1013D00099F42115310509F44AC0281B390B243032
:1013E0003105D8F58A819B816115710589F1FB0171
:1013F00093838283FE0111C0408151810281138158
:1014000048175907E0F04817590799F4109761F009
:1014100012960C93129713961C933296CF01DF917C
:10142000CF911F910F9108950093CC011093CD019E
:10143000F4CF2115310551F04217530738F0A901B7
:10144000DB019A01BD01DF01F801C1CFEF01F9CF46
:101450009093CD018093CC01CDCFFE01E20FF31F1D
:10146000819391932250310939832883D7CF2091DA
:10147000CA013091CB01232B41F42091020130911C
:1014800003013093CB012093CA01209100013091D8
:1014900001012115310541F42DB73EB740910401FA
:1014A00050910501241B350BE091CA01F091CB014D
:1014B000E217F307A0F42E1B3F0B2817390778F02B
:1014C000AC014E5F5F4F2417350748F04E0F5F1F8A
:1014D0005093CB014093CA01819391939FCFF0E049
:1014E000E0E09CCFCF93DF930097E9F0FC013297C7
:1014F00013821282A091CC01B091CD01ED0130E0B8
:1015000020E01097A1F420813181820F931F209158
:10151000CA013091CB012817390709F061C0F09357
:10152000CB01E093CA01DF91CF910895EA01CE1774
:10153000DF07E8F54A815B819E0141155105B1F74E
:10154000E901FB83EA8349915991C40FD51FEC1738
:10155000FD0761F4808191810296840F951FE90156
:1015600099838883828193819B838A83F0E0E0E082
:1015700012968D919C9113970097B9F52D913C91FE
:101580001197CD010296820F931F2091CA013091CD
:10159000CB012817390739F6309751F51092CD0154
:1015A0001092CC01B093CB01A093CA01BCCFD383DE
:1015B000C28340815181840F951FC817D90761F4F8
:1015C0004E5F5F4F88819981480F591F5183408337
:1015D0008A819B81938382832115310509F0B0CFE5
:1015E000F093CD01E093CC019ECFFD01DC01C0CF93
:1015F00013821282D7CFB0E0A0E0E1E0FBE00C94D0
:10160000BC088C01009751F4CB010E94D6098C01D3
:10161000C801CDB7DEB7E0E10C94D808FC01E60FB5
:10162000F71F9C0122503109E217F30708F49DC00F
:10163000D901CD91DC911197C617D70798F0C53025
:10164000D10530F3CE0104978617970708F3C61B20
:10165000D70B2297C193D1936D937C93CF010E94B6
:10166000720AD6CF5B01AC1ABD0A4C018C0E9D1ECE
:10167000A091CC01B091CD01512C412CF12CE12C49
:10168000109731F58091CA019091CB018815990589
:1016900009F05CC04616570608F058C0809100015A
:1016A00090910101009741F48DB79EB740910401DC
:1016B00050910501841B950BE817F90708F055C0F8
:1016C000F093CB01E093CA01F90171836083A0CF4D
:1016D0008D919C91119712966C90129713967C9015
:1016E0001397A815B90559F56C0142E0C40ED11C39
:1016F000CA14DB0420F1AC014A195B09DA01129625
:10170000159780F06282738251834083D9016D9373
:101710007C93E114F10471F0D7011396FC93EE93DE
:10172000129776CF22968C0F9D1FF90191838083AB
:10173000F301EFCFF093CD01E093CC0169CF4816D0
:10174000590608F42C017D01D3019ACFCB010E94E8
:10175000D6097C01009749F0AE01B8010E94B80B90
:10176000C8010E94720A870153CF10E000E050CFF9
:10177000FB01DC0102C001900D9241505040D8F7AE
:101780000895FB01DC0101900D920020E1F708951E
:04179000F894FFCFFB
:101794000000CE018000000000009A01FA00270139
:0C17A400E701580136014A013C003E00FC
:00000001FF
