:100000000C947C000C94A4000C94A4000C94A40008
:100010000C94A4000C94A4000C94A4000C94A400D0
:100020000C94A4000C94A4000C9498060C94420721
:100030000C9451060C94A4000C94A4000C94A400FD
:100040000C9407060C94A4000C94D5050C94AF05F1
:100050000C94A4000C94A4000C94A4000C94A40090
:100060000C94A4000C94A4004E414E494E4954599E
:10007000494E46CDCCCC3D0AD7233C17B7D1387773
:10008000CC2B329595E6241FB14F0A000020410089
:1000900000C84200401C4620BCBE4CCA1B0E5AAED3
:1000A000C59D7400000000240027002A0000000005
:1000B00000250028002B00040404040404040402A6
:1000C00002020202020303030303030102040810F5
:1000D00020408001020408102001020408102000C2
:1000E00000000800020100000304070000000000F7
:1000F00000000000D8076A0A11241FBECFEFD8E025
:10010000DEBFCDBF23E0ACECB1E001C01D92AC3747
:10011000B207E1F711E0A0E0B1E0E8EFFCE102C0D6
:1001200005900D92AC3CB107D9F710E0CBE7D0E0D9
:1001300004C02197FE010E94690ECA37D107C9F792
:100140000E942F080C946F0E0C940000AF92BF9287
:10015000CF92DF92EF92FF920F931F93CF93DF9393
:100160006C017B018B01040F151FEB015E01AE18C2
:10017000BF08C017D10759F06991D601ED91FC91E4
:100180000190F081E02DC6010995892B79F7C50111
:10019000DF91CF911F910F91FF90EF90DF90CF9063
:1001A000BF90AF900895FC01538D448D252F30E012
:1001B000842F90E0821B930B541710F0CF96089574
:1001C00001970895FC01918D828D981761F0A28DA1
:1001D000AE0FBF2FB11D5D968C91928D9F5F9F7367
:1001E000928F90E008958FEF9FEF0895FC01918D1D
:1001F000828D981731F0828DE80FF11D858D90E08A
:1002000008958FEF9FEF0895FC01918D228D892F26
:1002100090E0805C9F4F821B91098F73992708950E
:1002200087EB92E00E94040121E0892B09F420E091
:10023000822F089580E090E0892B29F00E94100120
:1002400081110C9400000895FC01A48DA80FB92F12
:10025000B11DA35ABF4F2C91848D90E001968F73EE
:100260009927848FA689B7892C93A089B1898C910D
:10027000837080648C93938D848D981306C002885C
:10028000F389E02D80818F7D80830895EF92FF9226
:100290000F931F93CF93DF93EC0181E0888F9B8DA9
:1002A0008C8D98131AC0E889F989808185FF15C063
:1002B0009FB7F894EE89FF896083E889F989808186
:1002C0008370806480839FBF81E090E0DF91CF9155
:1002D0001F910F91FF90EF900895F62E0B8D10E077
:1002E0000F5F1F4F0F731127E02E8C8D8E110CC0E6
:1002F0000FB607FCFACFE889F989808185FFF5CF31
:10030000CE010E942401F1CFEB8DEC0FFD2FF11DEA
:10031000E35AFF4FF0829FB7F8940B8FEA89FB896D
:1003200080818062CFCFCF93DF93EC01888D8823CB
:10033000B9F0AA89BB89E889F9898C9185FD03C048
:10034000808186FD0DC00FB607FCF7CF8C9185FF2D
:10035000F2CF808185FFEDCFCE010E942401E9CF4D
:10036000DF91CF91089590E0FC01E152FF4F24917D
:10037000FC01E553FF4F3491FC01E954FF4FE49138
:10038000EE23C9F0222339F0233001F1A8F4213003
:1003900019F1223029F1F0E0EE0FFF1FE355FF4F76
:1003A000A591B4918FB7F894EC91611126C0309566
:1003B0003E233C938FBF08952730A9F02830C9F021
:1003C000243049F7809180008F7D03C080918000A8
:1003D0008F7780938000DFCF84B58F7784BDDBCFAC
:1003E00084B58F7DFBCF8091B0008F778093B00074
:1003F000D2CF8091B0008F7DF9CF3E2BDACFCF9353
:10040000DF9390E0FC01E553FF4F249189549F4F07
:10041000FC0184918823D1F090E0880F991FFC01A2
:10042000ED55FF4FA591B491FC01E355FF4FC591E8
:10043000D491623071F49FB7F8943C91822F8095EB
:1004400083238C93E8812E2B28839FBFDF91CF914C
:1004500008958FB7F894EC912E2B2C938FBFF6CF85
:100460003FB7F89480916B0290916C02A0916D025D
:10047000B0916E0226B5A89B05C02F3F19F00196DA
:10048000A11DB11D3FBFBA2FA92F982F8827BC01EE
:10049000CD01620F711D811D911D42E0660F771F16
:1004A000881F991F4A95D1F70895089550917302B6
:1004B00040917202852F90E0242F30E0541718F0FD
:1004C000821B930B0895805B9F4FFACF809173023C
:1004D000E09172028E1751F0EF5FE03508F0E0E036
:1004E000F0E0EA5EFD4F808190E008958FEF9FEF8E
:1004F00008958091730290917202891769F09F5F4D
:10050000903508F090E0E92FF0E0EA5EFD4F808141
:100510009093720290E008958FEF9FEF0895CF922D
:10052000DF92EF92FF92C0907B02D0907C02E0902D
:100530007D02F0907E0220E030E040EA52E4C70104
:10054000B6010E943D0E18164CF41092B60210929D
:10055000B502FF90EF90DF90CF90089520E030E05B
:1005600048E452E4C701B6010E94290C87FF07C086
:100570008FE090E09093B6028093B502EACF20E03E
:1005800030E048EC51E460917F02709180028091EC
:100590008102909182020E94290C87FF10C020E006
:1005A00030E046E154E460919A0270919B028091A0
:1005B0009C0290919D020E94290C87FF03C08AE053
:1005C00090E0D8CF85E090E0D5CF80917102811185
:1005D000FCCF0895809170028F5F843408F080E032
:1005E00090916F029817E1F32FB7F89490917102F0
:1005F000992359F0E82FF0E0E453FE4F6083809395
:1006000070022FBF81E090E0089581E08093710235
:10061000609311021092100282E086BB80916F00FD
:10062000826080936F00809180008F7B80688093D0
:10063000800080918400909185004096909389007D
:1006400080938800DECF90E080E00895CF93DF9321
:10065000EC0160E08E810E94B30161E08E810E9416
:10066000B30160E08E810E94B3018BE891E00197B5
:10067000F1F7DF91CF910895CF92DF92EF92FF9241
:100680000F931F93CF93DF936C017C0187E0E80EFB
:10069000F11CD0E0C0E0062F10E0B8010C2E02C023
:1006A000759567950A94E2F76170F70181917F0172
:1006B0000E94B3012196C430D10579F7C601DF91BC
:1006C000CF911F910F91FF90EF90DF90CF900C94FE
:1006D0002603CF92DF92EF92FF920F931F93CF9357
:1006E000DF93EC01F62E642F8C810E94B3018D8183
:1006F0008F3F19F060E00E94B3010F2D10E08F854D
:1007000084FF25C06E0187E0C80ED11CF12CE12CBE
:10071000B8010E2C02C0759567950A94E2F76170D6
:10072000F60181916F010E94B301FFEFEF1AFF0AFA
:1007300088E0E816F10461F7CE01DF91CF911F91B7
:100740000F91FF90EF90DF90CF900C942603B801AB
:1007500084E0759567958A95E1F7CE010E943C0388
:100760006F2DCE01DF91CF911F910F91FF90EF90F0
:10077000DF90CF900C943C0340E0682F84E593E039
:100780000C946903CF93DF93613029F09091630358
:10079000986090936303609367031092680390E4FA
:1007A0009093690380936A03805C80936B0361E09C
:1007B000809158030E94FF01809159038F3F19F0E7
:1007C00061E00E94FF0161E080915A030E94FF01F5
:1007D000C4E5D3E09E01245533408091630384FD3A
:1007E0000BC084E090E021962817390744F461E0BB
:1007F0008E810E94FF01EECF88E090E0F4CF8BE382
:100800009DE00197F1F760E0809158030E94B301E9
:1008100060E080915A030E94B301809159038F3F99
:1008200019F060E00E94B3018091630384FD39C038
:1008300063E084E593E00E943C03CBE4D6E4CE0180
:100840000197F1F763E084E593E00E943C03219770
:10085000F1F763E084E593E00E943C0383E592E0D6
:100860000197F1F762E084E593E00E943C038091F8
:10087000630380620E94BC0384E0809364038CE085
:100880000E94BC0381E00E94BC038BE39FE10197BF
:10089000F1F782E08093650386E0DF91CF910C94BD
:1008A000BC0380620E94BC038BE496E40197F1F7DD
:1008B0008091630380620E94BC0383E592E001970C
:1008C000F1F78091630380620E94BC03D0CF41E0C6
:1008D0000E94690381E090E00895FB0101900020EF
:1008E000E9F73197AF01461B570BDC01ED91FC9105
:1008F0000280F381E02D09948F929F92AF92BF9274
:10090000EF92FF920F931F93CF93DF93CDB7DEB794
:10091000A1970FB6F894DEBF0FBECDBF7C01FA01E0
:10092000CB0119A2223008F42AE08E010F5D1F4F7F
:10093000822E912CB12CA12CBF01A50194010E9403
:10094000470EF901CA016A300CF5605DD8016E935B
:100950008D01232B242B252B79F790E080E0109735
:1009600021F0BD01C7010E946D04A1960FB6F89455
:10097000DEBF0FBECDBFDF91CF911F910F91FF90D2
:10098000EF90BF90AF909F908F900895695CDECFFD
:100990004F925F926F927F928F929F92AF92BF928F
:1009A000CF92DF92EF92FF926B017C01AC019B0131
:1009B0000E94420E60E371E081111AC046015701A6
:1009C000E894B7F82FEF3FEF4FE75FE7C501B401B9
:1009D0000E94420E811126C02FEF3FEF4FE75FE7E5
:1009E000C501B4010E94290C1816E4F464E371E017
:1009F00087EB92E00E946D047C016CE371E087EB71
:100A000092E00E946D048E0D9F1DFF90EF90DF908D
:100A1000CF90BF90AF909F908F907F906F905F909E
:100A20004F9008952FEF3FEF4FE75FE4C701B60106
:100A30000E943D0E18161CF468E371E0D9CF2FEF29
:100A40003FEF4FE75FECC701B6010E94290C87FD1D
:100A5000F3CF20E030E0A901C701B6010E94290CC4
:100A6000B12CA12C87FF0AC06DE287EB92E00E94B7
:100A700046015C01F7FAF094F7F8F0942AE037EDBC
:100A800043EA5BE3C701B6010E94A20D2B013C01C2
:100A90000E940E0E6B017C010E942E0C9B01AC018A
:100AA000C301B2010E94A10D2B013C012AE0B70154
:100AB000A60187EB92E00E947C047C01EA0CFB1CFF
:100AC0006EE287EB92E00E944601E80EF91E20E0FC
:100AD00030E040E251E4C301B2010E948F0C2B01CF
:100AE0003C010E940E0E4B01B12CA12C2AE0B50155
:100AF000A40187EB92E00E947C04E80EF91EC50178
:100B0000B4010E942E0C9B01AC01C301B2010E94F2
:100B1000A10D20E030E040E251E40E948F0C0E94E1
:100B20000E0EAB0170E060E02AE087EB92E00E94DD
:100B30007C04E80EF91E61CFCF93DF93682F87EB1B
:100B400092E00E944601EC016CE371E087EB92E0D9
:100B50000E946D048C0F9D1FDF91CF9108951F920D
:100B60000F920FB60F9211242F933F934F935F93E1
:100B70006F937F938F939F93AF93BF93EF93FF9365
:100B800087EB92E00E942401FF91EF91BF91AF911A
:100B90009F918F917F916F915F914F913F912F9195
:100BA0000F900FBE0F901F9018951F920F920FB6C7
:100BB0000F9211242F938F939F93EF93FF93E091C4
:100BC000C702F091C8028081E091CD02F091CE027F
:100BD00082FD1BC090818091D0028F5F8F73209126
:100BE000D102821741F0E091D002F0E0E954FD4FCC
:100BF000958F8093D002FF91EF919F918F912F91CC
:100C00000F900FBE0F901F9018958081F4CF1F9208
:100C10000F920FB60F9211242F933F938F939F93B0
:100C2000AF93BF938091670290916802A09169028F
:100C3000B0916A023091660223E0230F2D3758F5F8
:100C40000196A11DB11D20936602809367029093C7
:100C50006802A0936902B0936A0280916B0290913E
:100C60006C02A0916D02B0916E020196A11DB11DA2
:100C700080936B0290936C02A0936D02B0936E020E
:100C8000BF91AF919F918F913F912F910F900FBE88
:100C90000F901F90189526E8230F0296A11DB11DF5
:100CA000D2CF1F920F920FB60F9211242F938F93D2
:100CB0009F93EF93FF9380916F008B7F80936F00E2
:100CC000809181008F7B80938100809174022091BC
:100CD0001502205890911402893020F49695922B99
:100CE0008F5FFACF90931402809173028F5F8035EB
:100CF00008F080E020917202281739F0E82FF0E028
:100D0000EA5EFD4F9083809373021092740280918B
:100D100081008F7B8093810010921502FF91EF91EB
:100D20009F918F912F910F900FBE0F901F9018954C
:100D30001F920F920FB60F9211242F933F934F9350
:100D40005F936F937F938F939F93AF93BF93EF9333
:100D5000FF93809186009091870040911502209129
:100D600081004423F1F12F7B209381001092150222
:100D70003091740231113CC0411122C020917502A2
:100D800030917602280F391F30938B0020938A0010
:100D900024E026BB20916F00246020936F002091F7
:100DA000770230917802820F931F36952795280F8E
:100DB000391F309313022093120281E08093740252
:100DC000FF91EF91BF91AF919F918F917F916F9123
:100DD0005F914F913F912F910F900FBE0F901F90F9
:100DE000189520642093810020E820931502C0CF3D
:100DF0004091120250911302609177027091780233
:100E0000DB01A095B095E091150220911402841B9E
:100E1000950BA817B90768F126952E2B460F571F7B
:100E20003F5F861B970B3930A0F32093140280910B
:100E30006F008B7F80936F00809173028F5F80358E
:100E400008F080E090917202981749F0E82FF0E0E6
:100E500090911402EA5EFD4F90838093730280911B
:100E600081008F7B80938100109215021092740292
:100E7000A7CF209314025093130240931202309391
:100E800074029ECF1F920F920FB60F9211242F93D0
:100E90003F934F935F936F937F938F939F93EF93C2
:100EA000FF932091710260911102809188009091CE
:100EB00089004091770250917802309110022A30D7
:100EC00070F5840F951F762F7170293009F471E049
:100ED00066952F5F371799F3309180007723E1F003
:100EE000306C3093800090938900809388007093D9
:100EF00010026093110220937102FF91EF919F9174
:100F00008F917F916F915F914F913F912F910F90B2
:100F10000FBE0F901F9018953F7B3068E2CF309145
:100F20007002E0916F023E1319C02A3051F42BE099
:100F300020937102840F951F9093890080938800FD
:100F4000DCCF10927102809180008F7380938000BB
:100F500080916F008D7F80936F00CFCFEF5FE4347F
:100F600008F0E0E0E0936F02F0E0E453FE4F3081E0
:100F70003093110210921002309180003F7B306854
:100F8000309380002A3071F42091770230917802FA
:100F9000820F931F909389008093880081E0809353
:100FA0007102ABCF80918400909185004096F2CF82
:100FB000E7EBF2E01382128288EE93E0A0E0B0E06B
:100FC00084839583A683B78324E031E03183208333
:100FD00025EC30E03587248724EC30E037872687FE
:100FE00020EC30E0318B208B21EC30E0338B228BF6
:100FF00022EC30E0358B248B26EC30E0378B268BCF
:10100000118E128E138E148EECE6F3E01382128290
:1010100084839583A683B78382E291E09183808362
:10102000E4E5F3E01382128286E191E0918380830C
:101030008CE084838FEF85838BE0868385E08783D4
:1010400084E0808783E0818782E08287138614862C
:1010500015861686178661E080E10C94C2037894A9
:1010600084B5826084BD84B5816084BD85B58260AD
:1010700085BD85B5816085BD80916E00816080935E
:101080006E001092810080918100826080938100C7
:1010900080918100816080938100809180008160D7
:1010A000809380008091B10084608093B100809132
:1010B000B00081608093B00080917A00846080935A
:1010C0007A0080917A00826080937A0080917A0021
:1010D000816080937A0080917A00806880937A00A2
:1010E0001092C100E091C702F091C80282E08083B3
:1010F000E091C302F091C4021082E091C502F09128
:10110000C6028FEC80831092CF02E091CB02F09167
:10111000CC0286E08083E091C902F091CA0280810E
:1011200080618083E091C902F091CA028081886069
:101130008083E091C902F091CA0280818068808337
:10114000E091C902F091CA0280818F7D8083109264
:101150006F001092800081E88093810083E896E020
:1011600090937802809377028BE39CE390937602CE
:101170008093750262E088E00E94FF0161E089E0EF
:101180000E94B30161E089E00E94FF0110927402A5
:1011900010927302109272021092710210927002F9
:1011A00010926F0280E286BB80936F001092B402AF
:1011B00010927F021092800210928102109282029D
:1011C00010927B0210927C0210927D0210927E029D
:1011D0001092B3021092B6021092B50210929A02C7
:1011E00010929B0210929C0210929D0264E084E196
:1011F0000E94C203C0E0D0E011E0E1E0809167030B
:101200008111E0E0E195F0E0EC5AFC4F84898068C0
:101210000E94BC036FE371E084E593E00E946D04DB
:10122000E0916703E23008F031C1E150F0E0EC5AA0
:10123000FC4F848980680E94BC03C090B502D090A6
:10124000B6020D2C000CEE08FF082AE0B701A6013B
:10125000F7FE0EC041E06DE284E593E00E94690371
:1012600044275527BA014C195D096E097F092AE008
:1012700084E593E00E947C0461E571E084E593E0FD
:101280000E946D048CE693E00E945602181619061F
:1012900014F58CE693E00E947902082F64E671E071
:1012A00087EB92E00E946D04802F0E949C05809144
:1012B0007A02882309F4F7C0E09179020E3309F429
:1012C000E7C0E43140F4AE2FB0E0AD57BD4F0C9312
:1012D000EF5FE09379028091B402882309F45AC049
:1012E0001092B4026BE671E087EB92E00E946D040D
:1012F00063E872E087EB92E00E946D046CE371E0BA
:1013000087EB92E00E946D0469E871E083E892E067
:101310000E948C0A6C0169E871E090E080E00E9414
:101320008C0A7C01C6010E94880A60937F02709338
:1013300080028093810290938202C7010E94880AF2
:1013400060937B0270937C0280937D0290937E0277
:101350006BE871E087EB92E00E946D0460917F0280
:101360007091800280918102909182020E94C80453
:1013700068E971E087EB92E00E946D0460917B0266
:1013800070917C0280917D0290917E020E94C8043F
:101390000E948F0287EB92E00E9404011816190642
:1013A00014F587EB92E00E94E200082F63EA71E0F7
:1013B00087EB92E00E946D04802F0E949C05809133
:1013C0009902882309F480C0E09198020E3309F451
:1013D00070C0E43140F4AE2FB0E0A256BD4F0C9384
:1013E000EF5FE09398028091B302882301F110929D
:1013F000B3028EE992E00E94880A60939A02709389
:101400009B0280939C0290939D026AEA71E087EBB5
:1014100092E00E946D0460919A0270919B0280910B
:101420009C0290919D020E94C8040E948F020E941B
:1014300030024B015C0184E6C82ED12CE12CF12C4A
:101440000E943002681979098A099B09683E734035
:1014500081059105A8F321E0C21AD108E108F1083D
:1014600088EE880E83E0981EA11CB11CC114D10423
:10147000E104F10429F7209709F4BFCE0E9410017E
:10148000882309F4BACE0E940000B7CEE1E0CECEA8
:10149000F0E0ED57FD4F108210927A02109279021F
:1014A0001093B40218CF0C3309F015CF10937A02C1
:1014B00012CFF0E0E256FD4F108210929902109286
:1014C00098021093B3028FCF0C3309F08CCF109396
:1014D000990289CF82E291E090936D0380936C032F
:1014E00080916F008B7F80936F0080916F008F7D64
:1014F00080936F00809172028093730280917102D9
:101500008111FCCF80916F008D7F80936F000895D3
:10151000662777270C94B80A48E753E00E94910A9F
:101520000895FA01A191B081009719F41097E1F0A4
:10153000CD01DC01CD010D90002011F4C00113C0DC
:10154000FB012191222319F02015D9F7F3CFFB01DC
:101550002191201519F41E92119606C02223C1F77D
:101560000D900020A1F7D001FA01A193B083089556
:10157000B0E0A0E0EEEBFAE00C94610D5C017B01C1
:101580006115710519F0DB018D939C9385010F5F47
:101590001F4FF501D0818D2F90E00E94080C6C0147
:1015A000892BB9F5DD32B9F50F5F1F4FD5011196C3
:1015B000DC91C1E05801F1E0AF1AB10843E050E01E
:1015C00060E770E0C5010E94110C892B69F5680184
:1015D00082E0C80ED11C45E050E06BE670E0C60129
:1015E0000E94110C892B21F4680197E0C90ED11CCF
:1015F000E114F10419F0D701CD92DC9260E070E0C3
:1016000080E89FEFC111FFC060E070E080E89FE7D5
:10161000FAC05801BBCFDB3229F485010E5F1F4FA2
:10162000F501D181C0E0C6CF43E050E068E670E04C
:10163000C5010E94110C892BE9F0F80110E000E0CF
:1016400020E030E0A9015F01B0ED8B2E8D0E89E026
:101650008815C8F19C2E689491F88C2F8870C2FF71
:1016600016C0811102C00F5F1F4F3196D501DC916A
:10167000C92DE9CFE114F10429F00E5F1F4FF701E6
:101680001183008360E070E080EC9FE7BCC088239A
:1016900011F001501109A5E0B0E00E94500D9B012E
:1016A000AC01220F331F441F551F280D311D411D52
:1016B000511D283999E93907490799E15907A8F2D5
:1016C000C6609C2ED2CFAEEF8A1206C0C3FD3CC0CE
:1016D0009C2E689493F8C9CFDF7DD534A9F580811D
:1016E0008D3239F4C061DF011296818162E070E0D1
:1016F00006C0DF018B32C1F3119661E070E08053C8
:101700005D01A61AB70A8A30F8F4E0E8CE16ECE0DC
:10171000DE065CF4B601660F771F660F771FC60EF4
:10172000D71ECC0CDD1CC80ED11C5D01FFEFAF1A1B
:10173000BF0A8C9180538A30A8F1C4FF03C0D194B2
:10174000C194D1080C0D1D1DC1FF09C0E114F104A5
:1017500031F081E0A81AB108D701AD92BC92CA015C
:10176000B9010E942E0CC370C33009F490584B018C
:101770005C0120E030E0A9010E94290C882309F4D3
:1017800040C0CFE9D0E017FF05C0119501951109C0
:10179000C7E8D0E06E01B8E1CB1AD10880E2E82EAC
:1017A000F12C0FC0D501B1CFFE01259135914591A6
:1017B00054910E191F09C501B4010E948F0C4B01F1
:1017C0005C01D501C4010E151F0574F72497F5942B
:1017D000E794CC16DD06A9F78A2F880F8B2F881F78
:1017E0008F3F49F020E030E0A901C501B4010E941B
:1017F000290C811106C082E290E090937B038093D4
:101800007A03C501B401CDB7DEB7ECE00C947D0DD1
:1018100091110C94FC0C803219F089508550C8F756
:101820000895FB01DC014150504088F08D918134D6
:101830001CF08B350CF4805E659161341CF06B35C7
:101840000CF4605E861B611171F3990B0895881B7F
:10185000FCCF0E946B0C08F481E00895E89409C065
:1018600097FB3EF490958095709561957F4F8F4FD3
:101870009F4F9923A9F0F92F96E9BB279395F695E9
:10188000879577956795B795F111F8CFFAF4BB0F67
:1018900011F460FF1BC06F5F7F4F8F4F9F4F16C0CB
:1018A000882311F096E911C0772321F09EE8872F55
:1018B000762F05C0662371F096E8862F70E060E011
:1018C0002AF09A95660F771F881FDAF7880F96958A
:1018D000879597F90895990F0008550FAA0BE0E82E
:1018E000FEEF16161706E807F907C0F012161306E2
:1018F000E407F50798F0621B730B840B950B39F422
:101900000A2661F0232B242B252B21F408950A2687
:1019100009F4A140A6958FEF811D811D08950E94B5
:10192000A20C0C94160D0E94080D38F00E940F0DA9
:1019300020F0952311F00C94FF0C0C94050D11244C
:101940000C944A0D0E94270D70F3959FC1F3950FDB
:1019500050E0551F629FF001729FBB27F00DB11D33
:10196000639FAA27F00DB11DAA1F649F6627B00DC3
:10197000A11D661F829F2227B00DA11D621F739FAC
:10198000B00DA11D621F839FA00D611D221F749FBA
:101990003327A00D611D231F849F600D211D822F01
:1019A000762F6A2F11249F5750409AF0F1F0882328
:1019B0004AF0EE0FFF1FBB1F661F771F881F915055
:1019C0005040A9F79E3F510580F00C94FF0C0C94F9
:1019D0004A0D5F3FE4F3983ED4F38695779567957B
:1019E000B795F795E7959F5FC1F7FE2B880F911D7F
:1019F0009695879597F9089599278827089597F9D7
:101A00009F6780E870E060E008959FEF80EC0895A4
:101A100000240A94161617061806090608950024CD
:101A20000A9412161306140605060895092E039447
:101A3000000C11F4882352F0BB0F40F4BF2B11F4BB
:101A400060FF04C06F5F7F4F8F4F9F4F089557FD1A
:101A50009058440F551F59F05F3F71F04795880F1C
:101A600097FB991F61F09F3F79F0879508951216B3
:101A700013061406551FF2CF4695F1DF08C016165F
:101A800017061806991FF1CF869571056105089410
:101A90000895E894BB2766277727CB0197F9089527
:101AA0000E94920DA59F900DB49F900DA49F800D54
:101AB000911D112408952F923F924F925F926F9241
:101AC0007F928F929F92AF92BF92CF92DF92EF92CE
:101AD000FF920F931F93CF93DF93CDB7DEB7CA1B4F
:101AE000DB0B0FB6F894DEBF0FBECDBF09942A887A
:101AF000398848885F846E847D848C849B84AA8422
:101B0000B984C884DF80EE80FD800C811B81AA81AE
:101B1000B981CE0FD11D0FB6F894DEBF0FBECDBF79
:101B2000ED010895A29FB001B39FC001A39F700D66
:101B3000811D1124911DB29F700D811D1124911DD5
:101B400008955058BB27AA270E94B90D0C94160D72
:101B50000E94080D38F00E940F0D20F039F49F3FCD
:101B600019F426F40C94050D0EF4E095E7FB0C94A3
:101B7000FF0CE92F0E94270D58F3BA17620773076D
:101B80008407950720F079F4A6F50C94490D0EF41E
:101B9000E0950B2EBA2FA02D0B01B90190010C017D
:101BA000CA01A0011124FF27591B99F0593F50F495
:101BB000503E68F11A16F040A22F232F342F4427ED
:101BC000585FF3CF469537952795A795F0405395E5
:101BD000C9F77EF41F16BA0B620B730B840BBAF0B5
:101BE0009150A1F0FF0FBB1F661F771F881FC2F720
:101BF0000EC0BA0F621F731F841F48F48795779534
:101C00006795B795F7959E3F08F0B0CF9395880FED
:101C100008F09927EE0F9795879508950E942F0D4C
:101C200088F09F5798F0B92F9927B751B0F0E1F09D
:101C3000660F771F881F991F1AF0BA95C9F714C04D
:101C4000B13091F00E94490DB1E008950C94490D16
:101C5000672F782F8827B85F39F0B93FCCF3869586
:101C600077956795B395D9F73EF4909580957095E3
:101C700061957F4F8F4F9F4F08950E946B0C08F422
:101C80008FEF08950E946B0C880B990B0895A1E2C9
:101C90001A2EAA1BBB1BFD010DC0AA1FBB1FEE1FE6
:101CA000FF1FA217B307E407F50720F0A21BB30B31
:101CB000E40BF50B661F771F881F991F1A9469F7AD
:101CC00060957095809590959B01AC01BD01CF0109
:101CD0000895EE0FFF1F0590F491E02D099410E098
:101CE000CBE7D0E004C0FE010E94690E2196CC37FC
:081CF000D107C9F7F894FFCFFA
:101CF800000000004601A600D30093010401E200A1
:101D0800F600000000006704A60023035502000047
:101D18000000EA02A6002303E502560279026602E1
:101D28006E616E00696E66006F7666000D0A005778
:101D380061746572696E67205261746520697320E9
:101D4800002064726F707320706572206D696E7503
:101D580074652E0072635F543A20005265636965AA
:101D680076656420446174612046726F6D20544822
:101D78002D426F7261643A20003A0074656D70728A
:101D880065747572653A200068756D69646974795F
:101D98003A200072635F4C3A2000526563696576A9
:101DA800656420446174612046726F6D204C6967D8
:0C1DB80068742D426F7261643A200000D4
:00000001FF
