:100000000C947C000C94A4000C94A4000C94A40008
:100010000C94A4000C94A4000C94A4000C94A400D0
:100020000C94A4000C94A4000C9423050C94CD050E
:100030000C94DC040C94A4000C94A4000C94A40074
:100040000C9492040C94A4000C9460040C943A0454
:100050000C94A4000C94A4000C94A4000C94A40090
:100060000C94A4000C94A4004E414E494E4954599E
:10007000494E46CDCCCC3D0AD7233C17B7D1387773
:10008000CC2B329595E6241FB14F0A000020410089
:1000900000C84200401C4620BCBE4CCA1B0E5AAED3
:1000A000C59D7400000000240027002A0000000005
:1000B00000250028002B00040404040404040402A6
:1000C00002020202020303030303030102040810F5
:1000D00020408001020408102001020408102000C2
:1000E00000000800020100000304070000000000F7
:1000F000000000006306E80811241FBECFEFD8E01F
:10010000DEBFCDBF23E0AEE6B1E001C01D92A0315D
:10011000B207E1F711E0A0E0B1E0EAE2F9E102C0E4
:1001200005900D92AE36B107D9F710E0CBE7D0E0DD
:1001300004C02197FE010E94670CCA37D107C9F796
:100140000E94BA060C94880C0C940000AF92BF92E7
:10015000CF92DF92EF92FF920F931F93CF93DF9393
:100160006C017B018B01040F151FEB015E01AE18C2
:10017000BF08C017D10759F06991D601ED91FC91E4
:100180000190F081E02DC6010995892B79F7C50111
:10019000DF91CF911F910F91FF90EF90DF90CF9063
:1001A000BF90AF900895FC01538D448D252F30E012
:1001B000842F90E0821B930B541710F0CF96089574
:1001C00001970895FC01918D828D981761F0A28DA1
:1001D000AE0FBF2FB11D5D968C91928D9F5F9F7367
:1001E000928F90E008958FEF9FEF0895FC01918D1D
:1001F000828D981731F0828DE80FF11D858D90E08A
:1002000008958FEF9FEF0895FC01918D228D892F26
:1002100090E0805C9F4F821B91098F73992708950E
:100220008BE492E00E94040121E0892B09F420E094
:10023000822F089580E090E0892B29F00E94100120
:1002400081110C9400000895FC01A48DA80FB92F12
:10025000B11DA35ABF4F2C91848D90E001968F73EE
:100260009927848FA689B7892C93A089B1898C910D
:10027000837080648C93938D848D981306C002885C
:10028000F389E02D80818F7D80830895EF92FF9226
:100290000F931F93CF93DF93EC0181E0888F9B8DA9
:1002A0008C8D98131AC0E889F989808185FF15C063
:1002B0009FB7F894EE89FF896083E889F989808186
:1002C0008370806480839FBF81E090E0DF91CF9155
:1002D0001F910F91FF90EF900895F62E0B8D10E077
:1002E0000F5F1F4F0F731127E02E8C8D8E110CC0E6
:1002F0000FB607FCFACFE889F989808185FFF5CF31
:10030000CE010E942401F1CFEB8DEC0FFD2FF11DEA
:10031000E35AFF4FF0829FB7F8940B8FEA89FB896D
:1003200080818062CFCFCF93DF93EC01888D8823CB
:10033000B9F0AA89BB89E889F9898C9185FD03C048
:10034000808186FD0DC00FB607FCF7CF8C9185FF2D
:10035000F2CF808185FFEDCFCE010E942401E9CF4D
:10036000DF91CF91089590E0FC01E152FF4F24917D
:10037000FC01E553FF4F3491FC01E954FF4FE49138
:10038000EE23C9F0222339F0233001F1A8F4213003
:1003900019F1223029F1F0E0EE0FFF1FE355FF4F76
:1003A000A591B4918FB7F894EC91611126C0309566
:1003B0003E233C938FBF08952730A9F02830C9F021
:1003C000243049F7809180008F7D03C080918000A8
:1003D0008F7780938000DFCF84B58F7784BDDBCFAC
:1003E00084B58F7DFBCF8091B0008F778093B00074
:1003F000D2CF8091B0008F7DF9CF3E2BDACFCF9353
:10040000DF9390E0FC01E553FF4F249189549F4F07
:10041000FC0184918823D1F090E0880F991FFC01A2
:10042000ED55FF4FA591B491FC01E355FF4FC591E8
:10043000D491623071F49FB7F8943C91822F8095EB
:1004400083238C93E8812E2B28839FBFDF91CF914C
:1004500008958FB7F894EC912E2B2C938FBFF6CF85
:100460003FB7F89480910D0290910E02A0910F0277
:10047000B091100226B5A89B05C02F3F19F0019638
:10048000A11DB11D3FBFBA2FA92F982F8827BC01EE
:10049000CD01620F711D811D911D42E0660F771F16
:1004A000881F991F4A95D1F7089508955091150214
:1004B00040911402852F90E0242F30E0541718F05B
:1004C000821B930B0895805B9F4FFACF809115029A
:1004D000E09114028E1751F0EF5FE03508F0E0E094
:1004E000F0E0E854FE4F808190E008958FEF9FEF99
:1004F00008958091150290911402891769F09F5F09
:10050000903508F090E0E92FF0E0E854FE4F80814C
:100510009093140290E008958FEF9FEF08958091DB
:1005200013028111FCCF0895809112028F5F8434F1
:1005300008F080E0909111029817E1F32FB7F8943A
:1005400090911302992359F0E82FF0E0E259FE4F01
:100550006083809312022FBF81E090E0089581E0D4
:10056000809313026093B3011092B20182E086BBC4
:1005700080916F00826080936F00809180008F7BFC
:1005800080688093800080918400909185004096DF
:100590009093890080938800DECF90E080E00895FA
:1005A000CF93DF93EC0160E08E810E94B30161E0A4
:1005B0008E810E94B30160E08E810E94B3018BE8BE
:1005C00091E00197F1F7DF91CF910895CF92DF92FB
:1005D000EF92FF920F931F93CF93DF936C017C01F7
:1005E00087E0E80EF11CD0E0C0E0062F10E0B80173
:1005F0000C2E02C0759567950A94E2F76170F701B9
:1006000081917F010E94B3012196C430D10579F711
:10061000C601DF91CF911F910F91FF90EF90DF9076
:10062000CF900C94D002CF92DF92EF92FF920F9373
:100630001F93CF93DF93EC01F62E642F8C810E94E1
:10064000B3018D818F3F19F060E00E94B3010F2D3F
:1006500010E08F8584FF25C06E0187E0C80ED11C95
:10066000F12CE12CB8010E2C02C0759567950A9407
:10067000E2F76170F60181916F010E94B301FFEF13
:10068000EF1AFF0A88E0E816F10461F7CE01DF9166
:10069000CF911F910F91FF90EF90DF90CF900C942E
:1006A000D002B80184E0759567958A95E1F7CE018F
:1006B0000E94E6026F2DCE01DF91CF911F910F9125
:1006C000FF90EF90DF90CF900C94E60240E0682F0F
:1006D00088EE92E00C941303CF93DF93613029F0FE
:1006E0009091F70298609093F7026093FB0210924A
:1006F000FC0290E49093FD028093FE02805C809364
:10070000FF0261E08091EC020E94FF018091ED0206
:100710008F3F19F061E00E94FF0161E08091EE02DD
:100720000E94FF01C8EED2E09E01285E3240809117
:10073000F70284FD0BC084E090E02196281739076A
:1007400044F461E08E810E94FF01EECF88E090E0EA
:10075000F4CF8BE39DE00197F1F760E08091EC022C
:100760000E94B30160E08091EE020E94B30180918B
:10077000ED028F3F19F060E00E94B3018091F70213
:1007800084FD39C063E088EE92E00E94E602CBE48B
:10079000D6E4CE010197F1F763E088EE92E00E9483
:1007A000E6022197F1F763E088EE92E00E94E6020C
:1007B00083E592E00197F1F762E088EE92E00E9413
:1007C000E6028091F70280620E94660384E08093D3
:1007D000F8028CE00E94660381E00E9466038BE3CE
:1007E0009FE10197F1F782E08093F90286E0DF91C3
:1007F000CF910C94660380620E9466038BE496E4BA
:100800000197F1F78091F70280620E94660383E509
:1008100092E00197F1F78091F70280620E946603EF
:10082000D0CF41E00E94130381E090E00895FB01E6
:1008300001900020E9F73197AF01461B570BDC010F
:10084000ED91FC910280F381E02D09940F931F93A9
:10085000CF93DF93EC010E9417048C0160E371E0F9
:10086000CE010E941704800F911FDF91CF911F913D
:100870000F9108951F920F920FB60F9211242F938C
:100880003F934F935F936F937F938F939F93AF9318
:10089000BF93EF93FF938BE492E00E942401FF91BA
:1008A000EF91BF91AF919F918F917F916F915F91E8
:1008B0004F913F912F910F900FBE0F901F90189561
:1008C0001F920F920FB60F9211242F938F939F9325
:1008D000EF93FF93E0915B02F0915C028081E091E5
:1008E0006102F091620282FD1BC0908180916402DE
:1008F0008F5F8F7320916502821741F0E09164024F
:10090000F0E0E55BFD4F958F80936402FF91EF91DE
:100910009F918F912F910F900FBE0F901F90189560
:100920008081F4CF1F920F920FB60F9211242F9354
:100930003F938F939F93AF93BF93809109029091C0
:100940000A02A0910B02B0910C023091080223E040
:10095000230F2D3758F50196A11DB11D20930802D4
:100960008093090290930A02A0930B02B0930C02A9
:1009700080910D0290910E02A0910F02B091100291
:100980000196A11DB11D80930D0290930E02A093BC
:100990000F02B0931002BF91AF919F918F913F9141
:1009A0002F910F900FBE0F901F90189526E8230FE0
:1009B0000296A11DB11DD2CF1F920F920FB60F92BA
:1009C00011242F938F939F93EF93FF9380916F0048
:1009D0008B7F80936F00809181008F7B809381005B
:1009E000809116022091B70120589091B60189306C
:1009F00020F49695922B8F5FFACF9093B601809159
:100A000015028F5F803508F080E0209114022817CE
:100A100039F0E82FF0E0E854FE4F90838093150200
:100A200010921602809181008F7B8093810010923A
:100A3000B701FF91EF919F918F912F910F900FBE72
:100A40000F901F9018951F920F920FB60F921124BE
:100A50002F933F934F935F936F937F938F939F93C6
:100A6000AF93BF93EF93FF9380918600909187009F
:100A70004091B701209181004423F1F12F7B209315
:100A800081001092B7013091160231113CC0411122
:100A900022C02091170230911802280F391F30937D
:100AA0008B0020938A0024E026BB20916F002460F5
:100AB00020936F002091190230911A02820F931F28
:100AC00036952795280F391F3093B5012093B4012F
:100AD00081E080931602FF91EF91BF91AF919F91BA
:100AE0008F917F916F915F914F913F912F910F90D7
:100AF0000FBE0F901F90189520642093810020E86E
:100B00002093B701C0CF4091B4015091B5016091DD
:100B1000190270911A02DB01A095B095E091B7011E
:100B20002091B601841B950BA817B90768F126958B
:100B30002E2B460F571F3F5F861B970B3930A0F3B4
:100B40002093B60180916F008B7F80936F0080911E
:100B500015028F5F803508F080E09091140298179D
:100B600049F0E82FF0E09091B601E854FE4F9083F1
:100B700080931502809181008F7B80938100109279
:100B8000B70110921602A7CF2093B6015093B5017A
:100B90004093B401309316029ECF1F920F920FB66E
:100BA0000F9211242F933F934F935F936F937F93F3
:100BB0008F939F93EF93FF93209113026091B30162
:100BC00080918800909189004091190250911A02F9
:100BD0003091B2012A3070F5840F951F762F717015
:100BE000293009F471E066952F5F371799F330913A
:100BF00080007723E1F0306C30938000909389007F
:100C0000809388007093B2016093B3012093130224
:100C1000FF91EF919F918F917F916F915F914F9194
:100C20003F912F910F900FBE0F901F9018953F7B13
:100C30003068E2CF30911202E09111023E1319C0E8
:100C40002A3051F42BE020931302840F951F9093C8
:100C5000890080938800DCCF10921302809180007D
:100C60008F738093800080916F008D7F80936F00E1
:100C7000CFCFEF5FE43408F0E0E0E0931102F0E062
:100C8000E259FE4F30813093B3011092B20130919E
:100C900080003F7B3068309380002A3071F42091CF
:100CA000190230911A02820F931F9093890080934A
:100CB000880081E080931302ABCF809184009091F3
:100CC00085004096F2CFEBE4F2E01382128288EEC8
:100CD00093E0A0E0B0E084839583A683B78324E00B
:100CE00031E03183208325EC30E03587248724EC04
:100CF00030E03787268720EC30E0318B208B21ECE9
:100D000030E0338B228B22EC30E0358B248B26ECC9
:100D100030E0378B268B118E128E138E148EE0E00E
:100D2000F3E01382128284839583A683B78382E2E1
:100D300091E091838083E8EEF2E01382128286E1F3
:100D400091E0918380838CE084838FEF85838BE0B7
:100D5000868385E0878384E0808783E0818782E0E3
:100D600082871386148615861686178661E080E1D1
:100D70000C946C03CF93DF93CDB7DEB7A1970FB67A
:100D8000F894DEBF0FBECDBF789484B5826084BD79
:100D900084B5816084BD85B5826085BD85B581607F
:100DA00085BD80916E00816080936E0010928100FD
:100DB00080918100826080938100809181008160B8
:100DC0008093810080918000816080938000809179
:100DD000B10084608093B1008091B0008160809305
:100DE000B00080917A00846080937A0080917A00CC
:100DF000826080937A0080917A00816080937A008B
:100E000080917A00806880937A001092C100E0910E
:100E10005B02F0915C0282E08083E0915702F091E6
:100E200058021082E0915902F0915A028FEC8083AF
:100E300010926302E0915F02F091600286E080838D
:100E4000E0915D02F0915E02808180618083E0919B
:100E50005D02F0915E02808188608083E0915D0296
:100E6000F0915E02808180688083E0915D02F09164
:100E70005E0280818F7D808310926F0010928000CF
:100E800081E88093810083E896E090931A02809332
:100E900019028BE39CE3909318028093170262E09F
:100EA00088E00E94FF0161E089E00E94B30161E0F7
:100EB00089E00E94FF011092160210921502109212
:100EC000140210921302109212021092110280E288
:100ED00086BB80936F0010924A021092490264E030
:100EE00084E10E946C039AE0492E512C612C712CF4
:100EF00020E0222E20E0322E11E0E1E08091FB0282
:100F00008111E0E0E195F0E0E851FD4F84898068CF
:100F10000E94660363E371E088EE92E00E9426047B
:100F2000E091FB02E23008F019C1E150F0E0E85135
:100F3000FD4F848980680E94660369E371E088EE52
:100F400092E00E94260480E093E00E945602181668
:100F5000190654F580E093E00E947902082F6CE3B3
:100F600071E08BE492E00E941704602F8BE492E022
:100F70000E94460160E371E08BE492E00E94170456
:100F800080911C02882309F4F6C0E0911B020E3305
:100F900009F4E6C0E43140F4AE2FB0E0A35EBD4FEB
:100FA0000C93EF5FE0931B0280914A02882351F17A
:100FB00010924A0263E471E08DE192E00E942809F8
:100FC0007C0163E471E090E080E00E9428096C01FC
:100FD000F70101900020E9F73197AF014E195F0941
:100FE000B7016F5F7F4FC7010E946D0CF601019042
:100FF0000020E9F732971082C7010E940609C60156
:101000000E9406098BE492E00E940401181619065A
:1010100054F58BE492E00E94E200082F65E471E051
:101020008BE492E00E941704602F8BE492E00E9410
:10103000460160E371E08BE492E00E941704809126
:101040003302882309F4A8C0E09132020E3309F478
:1010500098C0E43140F4AE2FB0E0AC5CBD4F0C93CF
:10106000EF5FE093320280914902882309F445C082
:10107000109249026CE471E08BE492E00E94170444
:1010800064E372E08BE492E00E94260484E392E041
:101090000E940A096C01990FEE08FF08F7FE82C052
:1010A0006DE28BE492E00E94460122273327A901DA
:1010B0002C193D094E095F0919A2CE0181967C01C8
:1010C000CA01B901A30192010E94450C605DF701BC
:1010D00062937F01211531054105510589F7E1141E
:1010E000F10429F0B7018BE492E00E94170460E359
:1010F00071E08BE492E00E9417040E9430026B01C1
:101100007C018CE4882E84E0982EA12CB12C0E94C6
:1011100030026C197D098E099F09683E7340810574
:101120009105A8F3F1E08F1A9108A108B10828EE03
:10113000C20E23E0D21EE11CF11C81149104A10413
:10114000B10429F72114310409F4D7CE0E9410010B
:10115000882309F4D2CE0E940000CFCEE1E0E6CE93
:10116000F0E0E35EFD4F108210921C0210921B0211
:1011700010934A0219CF0C3309F016CF10931C02BA
:1011800013CFF0E0EC5CFD4F10821092330210920E
:1011900032021093490267CF0C3309F064CF1093E9
:1011A000330261CFA701960119A2CE0181967C017D
:1011B000CA01B901A30192010E94450C605DF701CB
:1011C00062937F01211531054105510589F787CFCC
:1011D00082E291E0909301038093000380916F007D
:1011E0008B7F80936F0080916F008F7D80936F0065
:1011F0008091140280931502809113028111FCCF1B
:1012000080916F008D7F80936F0008956627772708
:101210000C945C09FC0188279927E89421912032DD
:10122000E9F3293010F02E30C8F32B3241F02D3283
:1012300039F4689404C00E945409820F911D2191D1
:1012400020532A30C0F31EF4909581959F4F089546
:101250004CE053E00E942D090895FA01A191B0815C
:10126000009719F41097E1F0CD01DC01CD010D904C
:10127000002011F4C00113C0FB012191222319F0B9
:101280002015D9F7F3CFFB012191201519F41E92F7
:10129000119606C02223C1F70D900020A1F7D001BE
:1012A000FA01A193B08308957AE0979F902D879FCC
:1012B000802D910D11240895B0E0A0E0E2E6F9E060
:1012C0000C94050C5C017B016115710519F0DB01C3
:1012D0008D939C9385010F5F1F4FF501D0818D2F5A
:1012E00090E00E94AC0A6C01892BB9F5DD32B9F5AA
:1012F0000F5F1F4FD5011196DC91C1E05801F1E05D
:10130000AF1AB10843E050E060E770E0C5010E9409
:10131000B50A892B69F5680182E0C80ED11C45E049
:1013200050E06BE670E0C6010E94B50A892B21F4FB
:10133000680197E0C90ED11CE114F10419F0D7013E
:10134000CD92DC9260E070E080E89FEFC111FFC0B9
:1013500060E070E080E89FE7FAC05801BBCFDB3265
:1013600029F485010E5F1F4FF501D181C0E0C6CF82
:1013700043E050E068E670E0C5010E94B50A892BA1
:10138000E9F0F80110E000E020E030E0A9015F01A1
:10139000B0ED8B2E8D0E89E08815C8F19C2E6894D7
:1013A00091F88C2F8870C2FF16C0811102C00F5FA8
:1013B0001F4F3196D501DC91C92DE9CFE114F1041D
:1013C00029F00E5F1F4FF7011183008360E070E08A
:1013D00080EC9FE7BCC0882311F001501109A5E003
:1013E000B0E00E94F40B9B01AC01220F331F441F9D
:1013F000551F280D311D411D511D283999E9390707
:10140000490799E15907A8F2C6609C2ED2CFAEEFEA
:101410008A1206C0C3FD3CC09C2E689493F8C9CFC5
:10142000DF7DD534A9F580818D3239F4C061DF01CB
:101430001296818162E070E006C0DF018B32C1F359
:10144000119661E070E080535D01A61AB70A8A30F8
:10145000F8F4E0E8CE16ECE0DE065CF4B601660FC8
:10146000771F660F771FC60ED71ECC0CDD1CC80E6B
:10147000D11C5D01FFEFAF1ABF0A8C9180538A30F7
:10148000A8F1C4FF03C0D194C194D1080C0D1D1D57
:10149000C1FF09C0E114F10431F081E0A81AB108DC
:1014A000D701AD92BC92CA01B9010E94D20AC370A1
:1014B000C33009F490584B015C0120E030E0A901F1
:1014C0000E94CD0A882309F440C0CFE9D0E017FF7D
:1014D00005C0119501951109C7E8D0E06E01B8E18A
:1014E000CB1AD10880E2E82EF12C0FC0D501B1CF84
:1014F000FE0125913591459154910E191F09C501A1
:10150000B4010E94330B4B015C01D501C4010E15DF
:101510001F0574F72497F594E794CC16DD06A9F718
:101520008A2F880F8B2F881F8F3F49F020E030E0F3
:10153000A901C501B4010E94CD0A811106C082E251
:1015400090E090930F0380930E03C501B401CDB7D3
:10155000DEB7ECE00C94210C91110C94A00B8032BE
:1015600019F089508550C8F70895FB01DC014150FE
:10157000504088F08D9181341CF08B350CF4805EE6
:10158000659161341CF06B350CF4605E861B611153
:1015900071F3990B0895881BFCCF0E940F0B08F480
:1015A00081E00895E89409C097FB3EF490958095FA
:1015B000709561957F4F8F4F9F4F9923A9F0F92F19
:1015C00096E9BB279395F695879577956795B79597
:1015D000F111F8CFFAF4BB0F11F460FF1BC06F5F7D
:1015E0007F4F8F4F9F4F16C0882311F096E911C08F
:1015F000772321F09EE8872F762F05C0662371F0B0
:1016000096E8862F70E060E02AF09A95660F771FC3
:10161000881FDAF7880F9695879597F90895990F9F
:101620000008550FAA0BE0E8FEEF16161706E807AC
:10163000F907C0F012161306E407F50798F0621BCD
:10164000730B840B950B39F40A2661F0232B242BA2
:10165000252B21F408950A2609F4A140A6958FEFC1
:10166000811D811D08950E94460B0C94BA0B0E94A7
:10167000AC0B38F00E94B30B20F0952311F00C94C2
:10168000A30B0C94A90B11240C94EE0B0E94CB0B12
:1016900070F3959FC1F3950F50E0551F629FF001C5
:1016A000729FBB27F00DB11D639FAA27F00DB11DDE
:1016B000AA1F649F6627B00DA11D661F829F222767
:1016C000B00DA11D621F739FB00DA11D621F839FEE
:1016D000A00D611D221F749F3327A00D611D231FC4
:1016E000849F600D211D822F762F6A2F11249F5712
:1016F00050409AF0F1F088234AF0EE0FFF1FBB1F15
:10170000661F771F881F91505040A9F79E3F5105D3
:1017100080F00C94A30B0C94EE0B5F3FE4F3983E27
:10172000D4F3869577956795B795F795E7959F5F7D
:10173000C1F7FE2B880F911D9695879597F908950F
:1017400099278827089597F99F6780E870E060E0FF
:1017500008959FEF80EC089500240A94161617064A
:1017600018060906089500240A9412161306140692
:1017700005060895092E0394000C11F4882352F0F5
:10178000BB0F40F4BF2B11F460FF04C06F5F7F4FAD
:101790008F4F9F4F089557FD9058440F551F59F094
:1017A0005F3F71F04795880F97FB991F61F09F3F4E
:1017B00079F087950895121613061406551FF2CF77
:1017C0004695F1DF08C0161617061806991FF1CFC7
:1017D00086957105610508940895E894BB276627EE
:1017E0007727CB0197F908950E94360CA59F900D9D
:1017F000B49F900DA49F800D911D112408952F92E8
:101800003F924F925F926F927F928F929F92AF9290
:10181000BF92CF92DF92EF92FF920F931F93CF93DD
:10182000DF93CDB7DEB7CA1BDB0B0FB6F894DEBF74
:101830000FBECDBF09942A88398848885F846E849A
:101840007D848C849B84AA84B984C884DF80EE80E4
:10185000FD800C811B81AA81B981CE0FD11D0FB6ED
:10186000F894DEBF0FBECDBFED010895A29FB00179
:10187000B39FC001A39F700D811D1124911DB29FC4
:10188000700D811D1124911D0895A1E21A2EAA1B2D
:10189000BB1BFD010DC0AA1FBB1FEE1FFF1FA21720
:1018A000B307E407F50720F0A21BB30BE40BF50B1D
:1018B000661F771F881F991F1A9469F760957095A6
:1018C000809590959B01AC01BD01CF010895EE0F6D
:1018D000FF1F0590F491E02D09946817790768F4CB
:1018E000FB01DC01E40FF51FA40FB51F02C002903D
:1018F0000E9241505040D8F708950C947F0CFB0194
:10190000DC0102C001900D9241505040D8F708957B
:1019100010E0CBE7D0E004C0FE010E94670C2196E6
:0A192000CC37D107C9F7F894FFCFC8
:10192A00000000004601A600D30093010401E20072
:10193A00F600000000001104A600CD0255020000C6
:10194A0000009402A600CD028F02560279026602B6
:10195A000D0A0048656C6C6F0031320072635F5487
:10196A003A20003A0072635F4C3A2000526563697C
:10197A006576656420446174612046726F6D204CFF
:0E198A00696768742D426F7261643A20000034
:107E0000112484B714BE81FFF0D085E080938100F7
:107E100082E08093C00088E18093C10086E0809377
:107E2000C20080E18093C4008EE0C9D0259A86E02C
:107E300020E33CEF91E0309385002093840096BBD3
:107E4000B09BFECF1D9AA8958150A9F7CC24DD24C4
:107E500088248394B5E0AB2EA1E19A2EF3E0BF2EE7
:107E6000A2D0813461F49FD0082FAFD0023811F036
:107E7000013811F484E001C083E08DD089C08234E0
:107E800011F484E103C0853419F485E0A6D080C0E4
:107E9000853579F488D0E82EFF2485D0082F10E0AE
:107EA000102F00270E291F29000F111F8ED06801E7
:107EB0006FC0863521F484E090D080E0DECF843638
:107EC00009F040C070D06FD0082F6DD080E0C81688
:107ED00080E7D80618F4F601B7BEE895C0E0D1E017
:107EE00062D089930C17E1F7F0E0CF16F0E7DF06D8
:107EF00018F0F601B7BEE89568D007B600FCFDCFD4
:107F0000A601A0E0B1E02C9130E011968C91119780
:107F100090E0982F8827822B932B1296FA010C0160
:107F200087BEE89511244E5F5F4FF1E0A038BF0790
:107F300051F7F601A7BEE89507B600FCFDCF97BE46
:107F4000E89526C08437B1F42ED02DD0F82E2BD052
:107F50003CD0F601EF2C8F010F5F1F4F84911BD097
:107F6000EA94F801C1F70894C11CD11CFA94CF0C13
:107F7000D11C0EC0853739F428D08EE10CD085E9AC
:107F80000AD08FE07ACF813511F488E018D01DD067
:107F900080E101D065CF982F8091C00085FFFCCF94
:107FA0009093C60008958091C00087FFFCCF809118
:107FB000C00084FD01C0A8958091C6000895E0E648
:107FC000F0E098E1908380830895EDDF803219F02E
:107FD00088E0F5DFFFCF84E1DECF1F93182FE3DFCA
:107FE0001150E9F7F2DF1F91089580E0E8DFEE27F6
:047FF000FF270994CA
:027FFE00040479
:0400000300007E007B
:00000001FF
